:020000040800F2
:10000000E006002439030008711700086D17000886
:100010006F170008570400085B1E0008000000006E
:100020000000000000000000000000005F18000851
:1000300059040008000000005D1800081D190008A0
:100040005303000853030008530300085303000838
:100050005303000853030008530300085303000828
:100060005303000853030008530300085303000818
:100070005303000853030008530300085303000808
:1000800053030008530300085303000853030008F8
:1000900053030008530300085303000853030008E8
:1000A00053030008530300085303000853030008D8
:1000B00053030008530300085303000853030008C8
:1000C00053030008530300085303000853030008B8
:1000D00053030008530300085303000853030008A8
:1000E00053030008530300080000000053030008F6
:1000F0005303000853030008530300085303000888
:100100005303000853030008530300085303000877
:100110005303000853030008530300085303000867
:100120005303000853030008530300085303000857
:100130005303000853030008530300085303000847
:1001400000000000000000000000000000000000AF
:100150005303000853030008530300085303000827
:100160005303000853030008530300085303000817
:100170005303000853030008530300085303000807
:1001800053030008530300085303000853030008F7
:1001900053030008530300085303000853030008E7
:1001A00053030008530300085303000853030008D7
:1001B00053030008530300085303000853030008C7
:1001C00053030008530300085303000853030008B7
:1001D00053030008530300085303000853030008A7
:1001E0005303000853030008530300085303000897
:1001F0005303000853030008530300085303000887
:100200005303000853030008530300085303000876
:100210005303000853030008530300085303000866
:1002200053030008530300085303000800000000B4
:1002300053030008530300080000000053030008A4
:100240005303000853030008530300085303000836
:100250005303000853030008530300085303000826
:100260005303000853030008530300085303000816
:100270005303000853030008530300080000000064
:100280005303000853030008530300080000000054
:10029000000000005303000800F002F800F03CF8F2
:1002A0000AA090E8000C82448344AAF10107DA45D1
:1002B00001D100F031F8AFF2090EBAE80F0013F0E7
:1002C000010F18BFFB1A43F001031847301C000050
:1002D000501C0000103A24BF78C878C1FAD85207E1
:1002E00024BF30C830C144BF04680C6070470000B0
:1002F0000023002400250026103A28BF78C1FBD82F
:10030000520728BF30C148BF0B6070471FB501F0CE
:10031000E7FD1FBD10B510BD00F063F81146FFF7F3
:10032000F5FF01F0ABFD00F081F803B4FFF7F2FF39
:1003300003BC00F089F800000948804709480047DD
:10034000FEE7FEE7FEE7FEE7FEE7FEE7FEE7FEE785
:10035000FEE7FEE704480549054A064B70470000E2
:100360002119000899020008E0000024E00600249A
:10037000E0020024E002002410B5203AC0F00B8017
:10038000B1E81850203AA0E81850B1E81850A0E899
:100390001850BFF4F5AF5FEA027C24BFB1E81850F3
:1003A000A0E8185044BF18C918C0BDE810405FEA63
:1003B000827C24BF51F8043B40F8043B08BF7047DF
:1003C000D20728BF31F8023B48BF11F8012B28BFE4
:1003D00020F8023B48BF00F8012B70477047704778
:1003E0007047754600F02CF8AE4605006946534646
:1003F00020F00700854618B020B5FFF7ABFFBDE839
:1004000020404FF000064FF000074FF000084FF07B
:10041000000B21F00701AC46ACE8C009ACE8C0090C
:10042000ACE8C009ACE8C0098D46704710B5044679
:10043000AFF300802046BDE81040FFF776BF000014
:10044000004870477C00002401491820ABBEFEE73D
:10045000260002007047FEE770470000024801686E
:1004600041F0010101607047200400582DE9F84F68
:10047000694C00224FF0B04A4FF0010B4FF00308D7
:100480004FF00F09C0E00BFA02F6334073D00D793C
:1004900005F00305012D01D0022D15D18768550007
:1004A00008FA05FC27EA0C07D1F80CC00CFA05FC89
:1004B0004CEA070CC0F808C04568B5430E79C6F38E
:1004C000001696402E4346600D79ED43AD0708D0E7
:1004D000C668550008FA05F7BE438F68AF4037433A
:1004E000C7600D7905F00305022D11D1D50800EB89
:1004F00085073E6A5507ED0E09FA05FC26EA0C064B
:10050000D1F810C00CFA05FC4CEA060CC7F820C064
:100510000668550008FA05F7BE430F7907F0030790
:10052000AF40374307604D6815F4403F6BD03B4DFB
:100530002E6846F002062E602D6822F0030606F1B2
:10054000B04605F002050095D6F8087495074FEA05
:10055000157C09FA0CF5AF43314DA84201D10025B5
:100560002EE0304DA84201D1012529E02E4DA842B0
:1005700002D1022524E046E02C4DA84201D10325FA
:100580001EE02B4DA84201D1042519E0294DA842B7
:1005900001D1052514E0284DA84201D106250FE020
:1005A000264DA84201D107250AE0254DA84201D1D8
:1005B000082505E0234DA84201D1092500E00A25C0
:1005C00005FA0CF53D43C6F80854DAF800505646D3
:1005D0004F689D43FF0200D51D43356075684F6825
:1005E0009D43BF0200D51D43756065684E689D43FD
:1005F000B60300D51D43656025684E689D43F6032C
:1006000000D51D432560521C0B6833FA02F57FF4B8
:100610003AAFBDE8F88F000080000058F44402585B
:10062000000002580004025800080258000C02584A
:10063000001002580014025800180258001C0258FA
:10064000002002580024025801480068000C70473E
:100650000010005C01488068704700000000002422
:1006600002488168027811448160704700000024CC
:10067000032010B500F06CF800F0B4F90F4A1168CF
:100680001268C1F303230E49CB5C03F01F03D8406B
:1006900002F00F02895C0B4A01F01F0120FA01F100
:1006A0001160094908600F2000F010F808B101201E
:1006B00010BD00F02BF8002010BD000018440258B7
:1006C000EA1E0008100000240C00002470B50D4D37
:1006D00004462A78A2B14FF47A700B49B0FBF2F0CD
:1006E0000968B1FBF0F000F0CCFC48B9102C07D23F
:1006F00000222146501E00F00BF800206C6070BDF7
:10070000012070BD000000240C0000247047000090
:100710000E4BF0B41B68C3F30223C3F10704042C8F
:1007200000D904241D1D072D01D2002300E0DB1E8B
:10073000012606FA04F56D1E0D409D409E40761E72
:10074000164045EA0601F0BC01F088BB0CED00E064
:10075000064A00F0070110684FF6FF03184040EA10
:100760000120034908431060704700000CED00E0D1
:100770000000FA052DE9F05F04000D467ED0DFF899
:100780004492D9F8000000F00F00A8420CD2D9F82A
:10079000001021F00F012943C9F80010D9F800001A
:1007A00000F00F00A84269D12078874E40070AD593
:1007B0002069316801F07001884204D9316821F064
:1007C0007001014331602078DFF8008200070CD50A
:1007D00060694146D8F8002002F07002904204D9C6
:1007E0000A6822F0700202430A602078C0060CD525
:1007F000A0694146D8F8002002F4E062904204D992
:100800000A6822F4E06202430A602078DFF8C0B18F
:1008100080060CD5E0695946DBF8002002F0700232
:10082000904204D90A6822F0700202430A602078DC
:1008300080070AD5E068316801F00F01884204D9C9
:10084000316821F00F01014331602078C0073DD0AD
:100850003068A16820F47060084330605A496068CD
:100860001839022818D0032819D00968012819D08E
:100870004907002949DADFF850A100E045E0AAF174
:10088000080ADAF8001021F007010143CAF8001045
:10089000FFF7E0FE074611E009688903E9E7096808
:1008A0008901E6E7C905E4E7FFF7D4FEC11B41F281
:1008B0008830814202D90320BDE8F09FDAF80000B9
:1008C000616800F03800B0EBC10FEDD120788007EF
:1008D0000AD5E068316801F00F01884204D231681E
:1008E00021F00F0101433160D9F80010484601F0B2
:1008F0000F01A9420BD9016821F00F0129430160C2
:10090000006800F00F00A84201D00120D4E7207851
:1009100040070AD52069316801F07001884204D28D
:10092000316821F0700101433160207800070CD557
:1009300060694146D8F8002002F07002904204D26B
:100940000A6822F0700202430A602078C0060CD5C3
:10095000A0694246D8F8001001F4E061884204D250
:10096000116821F4E06101431160207880060CD504
:10097000E0695946DBF8002002F07002904204D290
:100980000A6822F0700202430A6000F02BF8316816
:10099000C1F303220F498A5C02F01F02D040326883
:1009A00002F00F02895C0C4A01F01F0120FA01F1EC
:1009B00011600A4908600A480068BDE8F05FFFF767
:1009C00085BE000000200052184402581C44025802
:1009D00020440258EA1E0008100000240C000024E5
:1009E00004000024434830B50068444C10F038013E
:1009F000414808D00211082903D010290BD018292A
:100A00000BD0104630BD21688906FBD52168C1F3A3
:100A1000C101C84030BD3A4830BD364918310A6876
:100A2000096802F00302334B1C33C1F305111B6844
:100A3000304D03F0010324352D68C5F3CC0515FBBB
:100A400003F300EE103AB8EE400AE9B3294BDFEDAC
:100A50002D0A2033B7EE001A62B1DFED2B1A012AFE
:100A600001D0022A3CD002EE101AF8EE422A81EEA2
:100A7000A22A17E0226892060CD52268C2F3C102AE
:100A8000D04001EE900AF8EE612A01EE901AF8EEDD
:100A9000611A05E001EE901ADFED1C2AF8EE611AEA
:100AA00082EEA12A1868C0F3080001EE900A1868C7
:100AB000F8EE611A40EE201A31EE810A22EE000AA9
:100AC000C0F34620401C00E011E000EE900AF8EE72
:100AD000600A80EE201ABCEEC10A10EE100A30BD8A
:100AE00001EE901ADFED0A2AF8EE611AD8E700202D
:100AF00030BD0000104402580090D003004402585A
:100B000040787D01000000390024744A0024744CB0
:100B100020BCBE4B2DE9F05F040079D02078DFF8CF
:100B2000F8A3FE4EFE4DC00747D0DAF8000031684A
:100B300000F03800102815D0182803D101F0030068
:100B400002280FD06068B0F5803F12D010B1B0F528
:100B5000A02F18D0286820F480302860286820F45E
:100B6000802009E02868800327D560680028D4D059
:100B700023E0286840F480302860606888B1FFF77F
:100B800069FD074609E0286840F480202860F0E706
:100B9000FFF760FDC01B642872D828688003F7D572
:100BA0000BE0FFF757FD074604E0FFF753FDC01BBE
:100BB0006428F1D828688003F7D4207841F203092B
:100BC000D84F800766D5DAF80000316810F0380099
:100BD0000ED0182801D188070AD0E06880B32968B0
:100BE00021F0190101432960FFF734FD80462EE012
:100BF0002868400702D5E06800288ED02868E168A0
:100C000020F0190008432860FFF724FD804606E025
:100C1000D8E0FFF71FFDA0EB08000228BCD8286829
:100C20004007F6D5FFF710FD48451AD8206940283F
:100C300011D0396821F47C3141EA0030386029E074
:100C400016E0FFF707FDA0EB08000228A4D82868EB
:100C50004007F6D5E6E7386820F47C3040F40030F1
:100C6000ECE73868217C20F0FE4040EA0160E5E7CF
:100C7000286820F001002860FFF7ECFC804606E0C1
:100C800000E1FFF7E7FCA0EB0800022884D8286801
:100C90004007F6D42078C0065AD5DAF8000031684B
:100CA00000F03800DFF870B20828ABF1040B10D068
:100CB000182803D101F0030001280AD0E0690028B8
:100CC000286836D040F080002860FFF7C3FC8046DB
:100CD00021E02868C00521D5E069802872D11DE097
:100CE000206A20281FD0396821F0F84141EA80604D
:100CF00038602DE0DBF8001094F8202021F07C51C2
:100D000041EA0261CBF8001022E0FFF7A3FCA0EB60
:100D1000080002289AD82868C005F6D5FFF794FC89
:100D20004845E7D8DCE7386820F0F84040F08040DC
:100D3000DEE720F080002860FFF78CFC074604E027
:100D4000FFF788FCC01B0228A0D82868C005F7D48C
:100D50002078000728D5714960694C310028884601
:100D60000846096810D041F001010160FFF772FCEC
:100D7000074604E0FFF76EFCC01B022886D8D8F8AF
:100D800000008007F6D50FE021F001010160FFF7B8
:100D900061FC074604E0FFF75DFCC01B022871D828
:100DA000D8F800008007F6D42078800623D5A06903
:100DB0000028286810D040F480502860FFF74AFCD3
:100DC000074605E038E1FFF745FCC01B022859D86B
:100DD00028688004F7D50EE020F480502860FFF7E3
:100DE00039FC074604E0FFF735FCC01B022849D850
:100DF00028688004F7D4207840074DD5DFF8288193
:100E0000D8F8001041F48071C8F80010FFF722FCF8
:100E1000074604E0FFF71EFCC01B642832D8D8F850
:100E20000000C005F6D53D4FA068483701280AD01C
:100E300008B1052813D0386820F001003860386800
:100E400020F0040002E0386840F001003860A0683B
:100E500041F2883990B1FFF7FDFB80460AE038681F
:100E600040F004003860EEE7FFF7F4FBA0EB080168
:100E7000494507D838688007F6D50DE0FFF7EAFB4B
:100E8000804606E083E0FFF7E5FBA0EB080149455B
:100E90007DD838688007F6D4616AD9B3DAF80000E3
:100EA0004FF6F87BDFF8748008F10808C0F3C20041
:100EB000032808F10409A8F1040A69D02868022966
:100EC00020F08070286003D0FFF7C4FB044688E060
:100ED000FFF7C0FB074604E0FFF7BCFBC01B02287E
:100EE0007CD828688001F7D4306840F2F331884319
:100EF000E16A40EA0110A16A0843306094F83400C6
:100F0000218E4002491EA0F5007080B2C1F3080195
:100F100008430BE0B3E00000104402582844025894
:100F2000004402580444025800480258218F4FF4EC
:100F3000FE02491E02EA0141084394F83C101202E5
:100F4000491E02EA01610843C8F80000DAF80010FF
:100F5000504621F00101CAF80010D9F80020A36C16
:100F600022EA0B0242EAC302C9F80020DAF80010B4
:100F7000226C21F00C011143CAF80010DAF80010BD
:100F8000626C21F0020111430160016801E025E07B
:100F90002BE041F480310160016841F400310160CF
:100FA000016841F480210160016841F001010160A4
:100FB000286840F080702860FFF74CFB044604E08E
:100FC000FFF748FB001B022808D828688001F7D5E6
:100FD00055E0FFF73FFB001B022802D90320BDE8C4
:100FE000F09F28688001F4D449E03268D8F8000006
:100FF000012921D0A36A02F0030199421CD1E16AC0
:10100000C2F30512914217D1216BC0F30802491EA9
:101010008A4211D1616BC0F34622491E91420BD125
:10102000A16BC0F30642491E914205D1E16BC0F3AA
:101030000660491E814201D00120D0E7D9F80000A6
:101040004F46A16CC0F3CC00814218D0DAF8000002
:10105000564620F00100CAF80000FFF7FBFA0546EB
:10106000FFF7F8FAA842FBD03868A16C20EA0B0021
:1010700040EAC1003860306840F001003060002074
:10108000ADE7401EB0F1807F10B501D3012010BD47
:101090004FF0E02460610F21601700F0DFFE0020B8
:1010A000A06107202061002010BD10B5040003D00E
:1010B00094F83D0010B107E0012010BD002084F835
:1010C0003C00204600F022F8022084F83D00206811
:1010D000211D00F095FC012084F8480084F83E00B2
:1010E00084F83F0084F8400084F8410084F842000E
:1010F00084F8430084F8440084F8450084F84600EE
:1011000084F8470084F83D00002010BD114800B568
:1011100087B0016841F001010160006800F0010042
:1011200005900C480838016841F001010160006831
:10113000022101910F2100F001000590012004908F
:1011400002900390044800916946FFF78FF907B0B9
:1011500000BD0000E84402580000025890F83D101D
:10116000012901D001207047022180F83D1000685C
:101170001249884214D0B0F1804F11D010498842F2
:101180000ED0104988420BD00F49884208D00F4931
:10119000884205D00E49884202D00E49884207D1C4
:1011A00081680D4A1140062906D0B1F5803F03D071
:1011B000016841F00101016000207047000001401A
:1011C0000004004000080040000C00400004014002
:1011D00000180040004001400700010070B50446BF
:1011E00090F83C000025012815D0012684F83C60C9
:1011F000022084F83D0020688268364B1A4022F4B1
:101200007F4282600868702802462FD010DC10F000
:101210000F0F03D022E04FF0020070BD4FEA201004
:1012200007281BD2DFE800F0535353534B394100DA
:10123000B0F1101F4BD009DCB0F5805F0FD0B0F5D6
:10124000005F1ED0B0F5801F08D140E02038B0F517
:1012500080103CD010283AD0202838D0012584F8BE
:101260003D60002084F83C00284670BD4A68206834
:10127000D1E9021300F031FC2068816841F0770168
:1012800009E04A682068D1E9021300F026FC2068D2
:10129000816841F480418160E1E7CA68496820685B
:1012A00000F0B8FD2068502106E0CA68496820684F
:1012B00000F0C1FD2068602100F01AFCCFE7CA6889
:1012C0004968206800F0A6FD20684021F4E7206806
:1012D0001146F1E788FFCEFF70B5044690F83C0058
:1012E000002501280BD0012084F83C000C2A1ED0D8
:1012F00007DC82B1042A12D0082A06D113E00220AA
:1013000070BD102A17D0142A19D00125002084F8A6
:101310003C00284670BD206800F0F4FBF6E720682A
:1013200000F03EFCF2E7206800F082FCEEE7206867
:1013300000F0C6FCEAE7206800F0FCFCE6E7206865
:1013400000F030FDE2E710B5040003D094F83D0052
:1013500010B107E0012010BD002084F83C002046B9
:1013600000F022F8022084F83D002068211D00F0E2
:1013700047FB012084F8480084F83E0084F83F00D1
:1013800084F8400084F8410084F8420084F8430067
:1013900084F8440084F8450084F8460084F8470047
:1013A00084F83D00002010BD7047000030B50446B1
:1013B00069B104290ED008290FD00C2910D01029AA
:1013C00011D094F84300012810D0012030BD94F8CA
:1013D0003E00F8E794F83F00F5E794F84000F2E7A4
:1013E00094F84100EFE794F84200ECE70220E9B3FB
:1013F000042948D0082949D00C294AD010294BD0BB
:1014000084F843000122206800F05AFB2449206838
:10141000244A254B884209D0904207D0984205D0F3
:10142000224DA84202D0224DA84203D1456C45F47A
:10143000004545642068884212D0B0F1804F0FD03B
:101440001C4988420CD01C49884209D01B4988425B
:1014500006D0904204D01A49884201D0984209D15E
:101460008168184A1140062908D000E008E0B1F56B
:10147000803F03D0016841F001010160002030BDD0
:1014800084F83E00BEE784F83F00BBE784F84000E4
:10149000B8E784F84100B5E784F84200B2E70000FD
:1014A00000000140000401400040014000440140B0
:1014B000004801400004004000080040000C0040CB
:1014C000001800400700010070B5044690F83C0089
:1014D00000260D4601280BD0012084F83C000C2A80
:1014E0004AD007DC82B1042A20D0082A06D131E094
:1014F000022070BD102A53D0142A63D00126002088
:1015000084F83C00304670BD206800F0FBFA20688B
:10151000816941F0080181612068816921F004013D
:101520008161206881692A69114311E0206800F017
:1015300037FB2068816941F400618161206881691D
:1015400021F480618161206881692A6941EA022170
:101550008161D4E7206800F06BFB2068C16941F02D
:101560000801C1612068C16921F00401C1612068DE
:10157000C1692A69114311E0206800F0A1FB2068CD
:10158000C16941F40061C1612068C16921F48061D1
:10159000C1612068C1692A6941EA0221C161AEE7DF
:1015A000206800F0C7FB2068416D41F008014165EB
:1015B0002068416D21F0040141652068416D2A6970
:1015C000114311E0206800F0EDFB2068416D41F40B
:1015D000006141652068416D21F4806141652068AA
:1015E000416D2A6941EA0221416588E710B504008E
:1015F00003D094F83D0010B107E0012010BD002099
:1016000084F83C00204600F022F8022084F83D00D7
:101610002068211D00F0F4F9012084F8480084F8C6
:101620003E0084F83F0084F8400084F8410084F8CC
:10163000420084F8430084F8440084F8450084F8AC
:10164000460084F8470084F83D00002010BD704734
:1016500030B5044669B104290ED008290FD00C29F1
:1016600010D0102911D094F84300012810D0012087
:1016700030BD94F83E00F8E794F83F00F5E794F8A1
:101680004000F2E794F84100EFE794F84200ECE7FD
:101690000220E9B3042948D0082949D00C294AD0AE
:1016A00010294BD084F843000122206800F008FA8A
:1016B00024492068244A254B884209D0904207D00B
:1016C000984205D0224DA84202D0224DA84203D113
:1016D000456C45F4004545642068884212D0B0F15D
:1016E000804F0FD01C4988420CD01C49884209D039
:1016F0001B49884206D0904204D01A49884201D042
:10170000984209D18168184A1140062908D000E0A2
:1017100008E0B1F5803F03D0016841F001010160AC
:10172000002030BD84F83E00BEE784F83F00BBE7F0
:1017300084F84000B8E784F84100B5E784F8420037
:10174000B2E70000000001400004014000400140F9
:1017500000440140004801400004004000080040EF
:10176000000C00400018004007000100FEE7FEE703
:10177000704700001B48602110B5016000218160A6
:1017800041604C38FFF7DFFD16490022A1F14C0003
:10179000FFF7A2FD13490422A1F14C00FFF79CFDC5
:1017A00010490822A1F14C00FFF796FD0D490C22CB
:1017B000A1F14C00FFF790FD0A4800214C38FFF7DB
:1017C000F5FD084804214C38FFF7F0FD05480821D5
:1017D0004C38FFF7EBFD03480C21BDE810404C38B6
:1017E000FFF7E4BD600000241B48602110B50160D4
:1017F0000021816041604C38FFF7F8FE1649002255
:10180000A1F14C00FFF760FE13490422A1F14C0046
:10181000FFF75AFE10490822A1F14C00FFF754FED1
:101820000D490C22A1F14C00FFF74EFE0A480021A1
:101830004C38FFF70DFF084804214C38FFF708FF2C
:10184000054808214C38FFF703FF03480C21BDE889
:1018500010404C38FFF7FCBE600000247047704712
:1018600070B52B4C9CB0256825F004052560294CEB
:101870000026256825F0010525602468244C0C34D9
:10188000256845F440452560256805F440451B95CD
:101890002568AD04FCD5012400940CAD0396240406
:1018A000019402240994CDE90A410796082485E8A9
:1018B0000D00CDE910466846FFF72CF988B93F20A6
:1018C00013900320CDE9140640200101CDE9164014
:1018D000CDE9180150201A90022113A8FEF74AFF03
:1018E00010B101201CB070BD0B48016841F08001AF
:1018F00001600948F430016841F0020101600068AC
:1019000000F002001B90FEF7A9FD0020EAE70000AE
:101910000C4802582C04005800440258FEF7A0BEA0
:101920002048016841F4700101601F49086840F0D7
:10193000010008601C4A0020103210600A681B4B2E
:101940001A400A60184A18321060121D1060121DE9
:101950001060154A28321060121D1060121D1060B0
:10196000121D1060121D1060121D1060121D1060FB
:10197000121D10600A6822F480220A600A49603150
:1019800008600B4800686FF30F00B0F1005F03D2EE
:1019900008490120C1F808014FF000600149803971
:1019A0000860704788ED00E0004402587FEDF6EAD9
:1019B0000010005C0080005100B58BB06321002056
:1019C00003901822CDE90101049040F2CF710B4839
:1019D00000914FF0804102C06946FEF7CDFC0748F8
:1019E000FFF763FB4FF480500690044806A9FFF709
:1019F000F5FB0248FFF7B2FB0BB000BD140000245A
:101A00002DE9F04702684FF0804A254C254D264EBF
:101A1000A042264F264B09D0504507D0A84205D0FA
:101A2000B04203D0B84201D0984204D122F0700CE9
:101A30004A6842EA0C02DFF87CC0DFF87C80A042F2
:101A4000DFF878900FD050450DD0A8420BD0B042AF
:101A500009D0B84207D0984205D0604503D0404530
:101A600001D0484503D122F44075CA682A434D6924
:101A700022F080022A4302608A68C2620A68826297
:101A8000A04207D0984205D0604503D0404501D020
:101A9000484501D10969016301214161BDE8F08731
:101AA000000001400004004000080040000C00401D
:101AB0000004014000400140004401400048014052
:101AC000012301F01F0110B5046A8B409C4304629E
:101AD000036A8A401343036210BD10B5846842EA6A
:101AE00003220A4324F47F442243826010BD000095
:101AF0008268034B1A400A4342F007018160704735
:101B00008FFFCFFF2DE9F043026A22F0010202624B
:101B1000056A4268836925F002051B4C1C4E234070
:101B20000C6823F003031B4F1C438B68DFF868C06D
:101B30002B43164DDFF86490A84207D0B04205D081
:101B4000B84203D0604501D0484506D123F00808CB
:101B5000CB6843EA080323F00403A84207D0B0424D
:101B600005D0B84203D0604501D0484505D14D6944
:101B700022F4407215438A692A43426084614968AD
:101B800041630362BDE8F0838FFFFEFF0000014068
:101B90000004014000400140004401400048014071
:101BA000F0B5026A22F010020262056A4268836997
:101BB000194C1B4E23400C6823F4407343EA042461
:101BC00025F020038D6843EA0513144DA84201D087
:101BD000B04206D1CF6823F0800343EA071323F015
:101BE0004003A8420AD0B04208D00E4DA84205D00A
:101BF0000D4DA84202D00D4DA84207D14D6922F4E7
:101C0000406242EA85028D6942EA8502426084614F
:101C1000496881630362F0BDFF8FFFFE0000014051
:101C200000040140004001400044014000480140E0
:101C3000F0B5026A22F480720262056A4268C369E2
:101C4000194C1B4E23400C6823F003031C4325F45E
:101C500000738D6843EA0523144DA84201D0B042B9
:101C600006D1CF6823F4006343EA072323F480639B
:101C7000A8420AD0B04208D00E4DA84205D00E4D61
:101C8000A84202D00D4DA84207D14D6922F440521E
:101C900042EA05128D6942EA05124260C461496850
:101CA000C1630362F0BD00008FFFFEFF0000014032
:101CB0000004014000400140004401400048014050
:101CC00030B5026A22F480520262046A4268C36933
:101CD000124D2B400D6823F4407343EA052524F48C
:101CE00000538C6843EA04330D4CA0420BD00D4CDA
:101CF000A04208D00C4CA04205D00C4CA04202D00F
:101D00000B4CA04204D14C6922F4804242EA841276
:101D10004260C56149680164036230BDFF8FFFFE08
:101D20000000014000040140004001400044014027
:101D30000048014030B5026A22F480320262056A2E
:101D40004268436D114C23400C681C4325F400335A
:101D50000D8943EA05430E4DA8420BD00D4DA84214
:101D600008D00D4DA84205D00C4DA84202D00C4D14
:101D7000A84204D14D6922F4803242EA0522426031
:101D8000446549688165036230BD00008FFFFEFF36
:101D900000000140000401400040014000440140B7
:101DA0000048014030B5026A22F480120262056ADE
:101DB0004268436D114C23400C6843EA042425F427
:101DC00000130D8943EA05530D4DA8420BD00D4D6C
:101DD000A84208D00C4DA84205D00C4DA84202D014
:101DE0000B4DA84204D14D6922F4802242EA85229B
:101DF000426044654968C165036230BDFF8FFFFEE4
:101E00000000014000040140004001400044014046
:101E10000048014010B5046A036A23F0010303621D
:101E2000836923F0F00343EA0213836124F00A027A
:101E30000A43026210BD10B5036A23F01003036267
:101E40008469036A24F4704423F0A00344EA023254
:101E5000826143EA0111016210BDFEE70907090E24
:101E6000002804DB00F1E02080F80014704700F047
:101E70000F0000F1E02080F8141D7047FEF7F8FB1A
:101E8000042302220521A020FFF7EAFC00F01FF83E
:101E9000322000F004F8322000F00DF8FEE70022B6
:101EA00000284FF0804102DB4A638863704740425C
:101EB00048638A637047002200284FF0804102DBAC
:101EC000CA63086470474042C8630A64704710B52B
:101ED000FFF772FDFFF74EFCBDE81040FFF784BC32
:101EE0004FF04070E1EE100A704700000000010260
:101EF0000304010203040607080900001C1F000870
:101F00000000002414000000D4020008301F000864
:101F100014000024CC060000F002000801000000BC
:101F200010000000000000000090D0030090D003DB
:040000050800029954
:00000001FF
