:020000040800F2
:100000009809002459030008FB3E0008513B0008F2
:10001000F93E000847150008A9520008000000003A
:100020000000000000000000000000004340000845
:100030004915000800000000414000080141000887
:1000400073030008730300087303000873030008B8
:1000500073030008730300087303000873030008A8
:100060004B150008730300087303000873030008AE
:100070007303000873030008730300087303000888
:100080007303000873030008730300087303000878
:100090007303000873030008730300087303000868
:1000A0007303000873030008730300087303000858
:1000B0007303000873030008730300087303000848
:1000C0007303000873030008730300087303000838
:1000D00073030008655200087303000873030008E7
:1000E0007303000873030008000000007303000896
:1000F0007303000873030008730300087303000808
:1001000073030008730300087303000873030008F7
:1001100073030008730300087303000873030008E7
:1001200073030008730300087303000873030008D7
:1001300073030008730300087303000873030008C7
:1001400000000000000000000000000000000000AF
:1001500073030008730300087303000873030008A7
:100160007303000873030008730300087303000897
:100170007303000873030008730300087303000887
:100180007303000873030008730300087303000877
:100190007303000873030008730300087303000867
:1001A0007303000873030008730300087303000857
:1001B0007303000873030008730300087303000847
:1001C0007303000873030008730300087303000837
:1001D0007303000873030008730300087303000827
:1001E0007303000873030008730300087303000817
:1001F0007303000873030008730300087303000807
:1002000073030008730300087303000873030008F6
:1002100073030008730300087303000873030008E6
:100220007303000873030008730300080000000054
:100230007303000873030008000000007303000844
:1002400073030008730300087303000873030008B6
:1002500073030008730300087303000873030008A6
:100260007303000873030008730300087303000896
:100270007303000873030008730300080000000004
:1002800073030008730300087303000800000000F4
:10029000000000007303000800F002F800F04CF8C2
:1002A0000AA090E8000C82448344AAF10107DA45D1
:1002B00001D100F041F8AFF2090EBAE80F0013F0D7
:1002C000010F18BFFB1A43F0010318473C5300000D
:1002D0005C530000103A24BF78C878C1FAD852079E
:1002E00024BF30C830C144BF04680C6070470000B0
:1002F0000023002400250026103A28BF78C1FBD82F
:10030000520728BF30C148BF0B607047662905F00F
:100310001A81642900F0F880002070471FB505F0AD
:100320000DF900F0DBFB04000020002105F0F0F8DF
:10033000E0601FBD10B510BD00F0E8FC1146FFF7EE
:10034000EDFF05F025F800F006FD03B4FFF7F2FF1E
:1003500003BC04F0D2FF0000094880470948004769
:10036000FEE7FEE7FEE7FEE7FEE7FEE7FEE7FEE765
:10037000FEE7FEE704480549054A064B70470000C2
:1003800005410008990200089803002498090024F8
:100390009805002498050024704753EA020C00F0E9
:1003A00069802DE9F04B4FF00006002B1FBFB3FA18
:1003B00083F503FA05F424FA05F65E4012BF1643EE
:1003C000B2FA82F502FA05F4C5F120051EBF22FA41
:1003D00005FC44EA0C04203556EA044C4FEA144468
:1003E00018BF641C4FF000084FF00009904271EBF9
:1003F000030C39D3002919BFB1FA81F701FA07F6C6
:10040000B0FA80F700FA07F6C7F120071EBF20FAFE
:1004100007FC46EA0C062037B6FBF4FCA7EB050701
:10042000103F07F01F0BCBF120060CFA0BFB2CFA48
:1004300006F644BFB3460026202FA4BF5E464FF009
:10044000000B5BEA060C08BF4FF0010B19EB0B0920
:10045000ABFB027C48EB0608C01B06FB02CC0BFB87
:1004600003CC71EB0C01C1E70B46024641464846FE
:10047000BDE8F08B13B54FF000004FF00001AFF373
:100480000080BDE81C4070470FB4044910B503AAB2
:10049000029800F011FB10BC5DF814FB280000244A
:1004A0002DE9F0410E460446002020622046E16816
:1004B000884730B3252805D0D4E901219047206A28
:1004C000401CF2E7E168204600278847050018D065
:1004D000A5F14100192802D820354FF400673246B3
:1004E000294620462760FFF711FF40B1012804D0BC
:1004F000F61D26F007060836D8E7361DD6E728464B
:10050000DAE7206ABDE8F0812DE9F04106460024D3
:1005100010687529314616A510D0AFF30080002869
:1005200002DA404213A507E031688A0701D512A517
:1005300002E0490704D511A5012401E0AFF30080D2
:1005400000210A2206F1240709E0B0FBF2FCB0FB0F
:10055000F2F302FB1C00303078541846491C002886
:10056000F3D123462A463046BDE8F04100F03EB8BC
:10057000000000002D0000002B0000002000000003
:1005800010B5203AC0F00B80B1E81850203AA0E82E
:100590001850B1E81850A0E81850BFF4F5AF5FEA62
:1005A000027C24BFB1E81850A0E8185044BF18C915
:1005B00018C0BDE810405FEA827C24BF51F8043BBC
:1005C00040F8043B08BF7047D20728BF31F8023B10
:1005D00048BF11F8012B28BF20F8023B48BF00F8A4
:1005E000012B704770477047704770472DE9F047FF
:1005F0000D4699469246044600F124080168880693
:1006000004D5E06921F01001216000E00120A8423A
:1006100001DD471B00E00027A1697A1902EB090000
:10062000081AA0612078C00602D42046AFF30080EB
:10063000002608E0D4E901211AF806009047206A54
:10064000401C761C20624E45F4DB2078C0060AD59B
:100650002046AFF3008006E0D4E901213020904726
:10066000206A401C2062381EA7F10107F4DC07E075
:10067000D4E9012118F805009047206A401C206247
:10068000281EA5F10105F3DC2046AFF30080207899
:10069000000602D50220BDE8F0870120FBE7704785
:1006A0002DE9FF4F0C461E464FF0FF378BB0D2E9C5
:1006B0000001DDF860800A908A46C1F30A5505B949
:1006C0003D46002108464FF00000BAF1000F00F44B
:1006D000400005DA00EB80004FF4400101EA5000D1
:1006E0004FEA9059B9F1010F00DDB9460A9850EA76
:1006F0004A000ED044F61050A5F2FF3545432F14A2
:10070000B8F1000F1ED07542291E1EDDC9F100028E
:100710001CE0B8F1010F4FF0000001D0302103E0E0
:10072000F24305E02154401CB042FBDB304600227E
:10073000002121540B99C1F80880C1E900200FB0B5
:10074000BDE8F08FBD1B6D1CDEE74A4600DA69424A
:1007500006A800F065FA06AB93E8070003AB83E850
:10076000070050460A9900F033FB8DE80700A0F51A
:1007700000501F3800900398002D09DD42F21F0140
:100780004A46084403A90390684600F092FD08E039
:10079000A0F500504A461F3803A90390684600F0B0
:1007A0009CFD8DE807000004000C03D04FF0FF30E3
:1007B000410800E01046B8F1000F03D0002200927B
:1007C00015461EE0751E05D400F08CF930326255D6
:1007D0006D1EF9D5B3460122084302D000227F1CCA
:1007E00004E02078302801D100227F1E002A0997DA
:1007F00086D01DE0112D07DA00F074F93032625511
:100800006D1C50EA0102F5D1084302D00098C8B12E
:100810000EE00021681E05E0235C625C63542254F4
:10082000401E491C8142F7DBAB46A81B401E0990C5
:10083000002004F80B000B98099AC0F80880C0E962
:10084000002B7CE711264FF0000859E72DE9F04F07
:1008500088460446D21D22F0070191B0D1E900017B
:10086000CDE90A0104F021FD02460B98C00F01D02A
:100870002D2007E02068810701D52B2002E02021F0
:1008800001EAC000032A099001D0072A05DB0346CC
:100890004146204600F084F90BE12078800601D51E
:1008A000E06900E00620B8F1650F814606D0B8F196
:1008B000660F18D0B8F1670F70D131E00020B9F1A0
:1008C000110F009001DB112301E009F101030AAAD5
:1008D00001A90CA8FFF7E4FEDDE90C70002609F180
:1008E0000105834647E001204B4600904FF000474A
:1008F0000AAA01A90CA8FFF7D3FEDDE90DB00C99F7
:100900005D46002610B909F101000D18B9EB05008C
:1009100003D4C0F1FF3609F10105A5EB09002BE076
:10092000B9F1010F01DA4FF001090020B9F1110FFF
:100930000090484601DD112300E003460AAA01A900
:100940000CA8FFF7ADFEDDE90C704D46002683468E
:10095000207800070AD4AB4500DA5D4601A8012DD6
:1009600004DD411911F8011C302907D04F4502DA86
:1009700017F1040F04DA012082460FE06D1EEEE746
:10098000002F02DCED1B3E4403E0781CA84200DD92
:100990007D1CB81B00F1010A4FF0004720780007CA
:1009A00003D4AA4501DB4FF0FF3A0021B7F1004F15
:1009B0000DF143088DF8431024D002202B23002F83
:1009C00001DA7F422D230A21021EA0F1010000DC82
:1009D0005FB197FBF1FC97FBF1F201FB1C7C174622
:1009E0000CF1300C08F801CDEEE7A8F1010003701E
:1009F0002188090501D5452100E06521A0F1010804
:100A000000F8011C09980FA9A1EB0807FF1D00B110
:100A10000120411901EBEA70A1693844081A401E0F
:100A2000A0612078C00602D42046AFF30080099868
:100A300028B1D4E901219047206A401C2062207827
:100A4000C00622D52046AFF300801EE0002E04DB56
:100A5000B34502DD01A8805D00E03020D4E901212A
:100A60009047206A401C2062761CAAF101005FEAD0
:100A7000000A0AD100F032F8C0680168405CD4E98D
:100A800001219047206A401C2062281EA5F1010523
:100A9000DCDC07E0D4E9012118F8010B9047206A5B
:100AA000401C2062381EA7F10107F3DC2046AFF39B
:100AB0000080032011B043E6074B70B50D467B4420
:100AC00000F05BF80446284600F018F910B14FF02A
:100AD000FF3070BD204670BD83480000004870475D
:100AE0005803002430B5B0F10A024FEA900E71F1BC
:100AF00000034EEA817EB0EB0E0061EB91014FEAFC
:100B0000101E4EEA017E10EB0E0041EB11114FEA70
:100B1000102E4EEA016E10EB0E0041EB11214FEA50
:100B2000104E4EEA014E10EB0E0041EB1141401801
:100B300041F100014FEAD00040EA41704FEAD10193
:100B400010EB80054FEA810444EA907444EB010401
:100B50006D1944EB0404521BA3414FF0000348BF3E
:100B60000A3200D530BD401C41F1000130BD00000B
:100B700001694A1C02610878704700B58FB0CDE961
:100B800001310021059105497944CDE90310114651
:100B90006846FFF785FC0FB000BD0000E5FFFFFFD2
:100BA0002DE9F0411F46044603260168072A01F497
:100BB000006004DB08B116A505E016A503E008B146
:100BC00015A500E015A521F010002060A069C01E49
:100BD000A0610FB1401EA0612046AFF300804FB16D
:100BE000D4E9012138469047206A401C2062C01C8D
:100BF000206206E0206AFAE7D4E9012115F8010B2A
:100C00009047761EF8D22046AFF30080BDE8F08111
:100C10004E414E006E616E00494E4600696E6600A0
:100C20002DE9F047814616468AB0334878440DC80E
:100C30008DE80D0030487844801C03AC0DC884E872
:100C40000D0041F69B300844372190FBF1F290FBF8
:100C5000F1F5A5F1800501FB12041B3C02D56442AD
:100C6000012000E00020DFF890A080460027FA4431
:100C7000AAF1BE0A0DE0E00709D03246684607EB4C
:100C800047010AEB810100F028FB8DE807006410A2
:100C90007F1C002CEFD1184F7F44AC3F18E0E807D1
:100CA00014D007EB04100DF1180A90E80E008AE842
:100CB0000E00C068F04201D198190890324606A98A
:100CC00003A800F00AFB03AB83E807006D10641C67
:100CD000002DE4D132466946B8F1000F03A802D0D6
:100CE00000F0E7FA01E000F0F8FAC9E90001C9F8FC
:100CF00008200AB0BDE8F087C0490000007B00F082
:100D00008000704700487047380300247546FFF79D
:100D1000F9FFAE4605006946534620F007008546B8
:100D200018B020B5FFF726FBBDE820404FF00006C5
:100D30004FF000074FF000084FF0000B21F00701C3
:100D4000AC46ACE8C009ACE8C009ACE8C009ACE806
:100D5000C0098D46704710B50446AFF300802046A9
:100D6000BDE81040FFF7F1BA4FF0013C50F8042BFA
:100D700051F8043B9A4215D1A2EB0C03934313EABA
:100D8000CC130BD150F8042B51F8043B9A4209D1F3
:100D9000A2EB0C03934313EACC13E7D04FF000000F
:100DA000704700BFD01A01BAB1FA81F101F0180101
:100DB00022FA01F0CB40C1F12001DBB2C0B2C01A6F
:100DC0002CFA01F3D11A914311EAC311E6D170470D
:100DD0005FEA400C08BF91F0000F4FEA8C234FEA06
:100DE000C12243EA51514FEA1C5018BF00F5F040B0
:100DF0004FEA300018BF41F000415FEA6C5C00F040
:100E00002980BCF1FF3F08BF40F080407047130CC1
:100E100006BF12044FF0100C4FF0000C130E04BF6D
:100E200012020CF1080C130F04BF12010CF1040C98
:100E3000930F04BF92000CF1020CD30F04BF5200B9
:100E40000CF1010C11464FF00002A0F11F00A0EBC5
:100E50000C00704711F0004F08BF704731F000419F
:100E60003FF4D5AF0B0C06BF09044FF0100C4FF048
:100E7000000C0B0E04BF09020CF1080C0B0F04BF91
:100E800009010CF1040C8B0F04BF89000CF1020C5A
:100E9000CB0F04BF49000CF1010CCCF12003A0EBF7
:100EA0000C0022FA03F302FA0CF241EA030100F10A
:100EB0000100704720F07F4C80EA030023F07F4759
:100EC000ACEB070303F57C5300F0004003F1FF0394
:100ED0002DE980494FEA154B09B44FEA144325EA3E
:100EE0000B4E24EA03480FF2042606EB13274908A9
:100EF0003E785FEA320203FB0667C7F5000707FB8F
:100F000006F64FEA54374FEAD64606F1020607FBCB
:100F1000066CCCF1005C4FEA1C472CEA074C07FB3F
:100F200006F40CFB06F504EB15464FEA961634BFA3
:100F300000204FF000404FEAD13706FB07FC4FEA94
:100F40001C4C0CFB0BF7D21B03FB0CF761EB0701EE
:100F50000CFB0EF7B0EB074072EB17420CFB08F7E7
:100F600034BFA2EB0742B2EB074261EB17414FEAF5
:100F70000C444FEA910706FB07FC4FEA1C4C0CFBA4
:100F80000BF7B0EBC74072EB573203FB0CF734BFE3
:100F9000A2EBC742B2EBC74261EB57310CFB0EF735
:100FA000B0EBC70072EB57720CFB08F734BFA2EB33
:100FB000C702B2EBC70261EB5771039F4FEA816131
:100FC00041EA921104EBCC044FEAD1374FEA826236
:100FD00006FB07FC42EA90124FEA80604FEA1C4C85
:100FE0000CFB0BF7D21B03FB0CF761EB07010CFBAF
:100FF0000EF7B0EB074072EB17420CFB08F734BF5B
:10100000A2EB0742B2EB074261EB17414FEA8C5566
:101010004FEA910704EB9C2406FB07FC4FEA1C4CAB
:101020000CFB0BF7B0EBC74072EB573203FB0CF72E
:1010300034BFA2EBC742B2EBC74261EB57310CFBA6
:101040000EF7B0EBC70072EB57720CFB08F734BF1A
:10105000A2EBC702B2EBC70261EB577115EB4C254F
:101060004FEA816141EA92114FEA82624FEAD13739
:1010700042EA901206FB07FC44F100044FEA80604C
:101080004FEA1C4C0CFB0BF7D21B03FB0CF761EB7C
:1010900007010CFB0EF7B0EB074072EB17420CFB9D
:1010A00008F734BFA2EB0742B2EB074261EB1741EE
:1010B00015EB1C154FEA813141EA92414FEA823229
:1010C00042EA90424FEA80304FEA0C7644F1000445
:1010D00048EA03434EEA0B484FF0000EB2EB080C0F
:1010E00071EB030724BF624639464EEB0E0E4FF0FC
:1010F000000B0018524149414BEB0B0BB2EB080CB3
:1011000071EB03077BF1000B24BF624639464EEBBF
:101110000E0E4FF0000B0018524149414BEB0B0BE8
:10112000B2EB080C71EB03077BF1000B24BF6246A6
:1011300039464EEB0E0E51EA020718BF46F0010683
:1011400016EB0E7655F1000254F1000103D5BDE80F
:101150008901BDE80088BDE88901BDE80048B619ED
:10116000524141EB0101A3F10103704780807F7E72
:101170007D7C7B7A7978777676757473727171700D
:101180006F6E6E6D6C6C6B6A6A69686867666665BF
:101190006464636362616160605F5F5E5E5D5D5C4D
:1011A0005C5B5B5A5A5959585857575656555555BE
:1011B0005454535352525251515050504F4F4F4E1E
:1011C0004E4D4D4D4C4C4C4B4B4B4A4A4A4949496C
:1011D00048484847474747464646454545444444AE
:1011E000444343434342424242414141002B26D4BF
:1011F000770021D01CB54FEA370703B44FF0100039
:101200004FF010014FF000000FBCBDE810400BF193
:10121000010BBBF1010F08BF5FEA170722BF12F1F4
:10122000010211F101014FF0004143F1000300F010
:10123000004043EA00007047F9D35708DAE746EA6E
:10124000064613F1400F4FEA16461FDD13F1200F3B
:10125000DFBF16430A46002120335B42C8D0C3F1EA
:10126000200746EA064602FA07F74FEA164646EA1C
:101270000706C3F1200722FA03F201FA07F721FA61
:1012800003F14FF0000342EA0702B1E746EA020623
:1012900046EA06464FEA164646EA0106BCBF46EA5B
:1012A0000646360C4FF000034FF000024FF00001ED
:1012B0009EE72DE9C048934630B491E8380007C84E
:1012C00031EA400C48BF34EA430C03D5FFF7F2FD86
:1012D000FFF78CFFF0BCBDE800882DE9C0489346BD
:1012E00030B491E8380007C810F0804F08BF13F001
:1012F000804F03D100F005F8FFF778FFF0BCBDE8A0
:10130000008820F07F4780EA030023F07F4C07EB42
:101310000C03A3F57C5300F00040A3F1FE0392F010
:10132000000F00F0B38095F0000F00F077802DE9FA
:1013300001494FEA11404FEA144621EA004800FBF8
:1013400006FC24EA064708FB06F607FB08F800FB44
:1013500007F718EB06484CEB164C4FEA124B18EB0C
:1013600007484FEA15464CEB174022EA0B4E0BFBA1
:1013700006FC25EA06470EFB06F607FB0EFE0BFBF6
:1013800007F71EEB064E4CEB164C4FF000061EEB1B
:10139000074E4CEB174B18EB0B0840F1000018EB15
:1013A0000E0B58EB000840F100008F1A4FF00001BF
:1013B0003CBFC943661B14BFB5EB040C00213CBF06
:1013C000C943F61B4FEA17444EEA8E0E27EA04453E
:1013D0004FEA1C4704FB07622CEA074C05FB07F7A2
:1013E0000CFB05F604FB0CFC16EB074642EB174220
:1013F00016EB0C4642EB1C421BEB060658EB0202B6
:10140000414146EA9E0601D5BDE80189B61952411F
:1014100041EB0101A3F10103BDE801894FEA144545
:101420004FEA114724EA054621EA074C05FB07F479
:1014300006FB07F70CFB06F105FB0CFC11EB074163
:1014400044EB17444FEA124711EB0C4144EB1C44A8
:1014500022EA074C05FB07F206FB07F70CFB06F632
:1014600005FB0CFC16EB074642EB174216EB0C464D
:1014700042EB1C456A1854F1000148BF7047B61989
:10148000524141EB0101A3F10103704795F0000FB8
:1014900037D04FEA11424FEA144721EA024624EAC4
:1014A000074C02FB07F106FB07F70CFB06F402FBF7
:1014B0000CFC14EB074441EB17414FEA154714EBC2
:1014C0000C4441EB1C4125EA074C02FB07F506FBE7
:1014D00007F70CFB06F602FB0CFC16EB074645EB88
:1014E000174516EB0C4645EB1C42121951F1000151
:1014F00048BF7047B619524141EB0101A3F1010306
:1015000070474FEA14454FEA114724EA054621EA9D
:10151000074C05FB07F106FB07F70CFB06F24FF043
:10152000000605FB0CFC12EB074241EB174112EBE6
:101530000C4251EB1C4148BF7047921841EB01012E
:10154000A3F101037047FEE77047042000F040BBA1
:101550002DE9F84F044600F045FC009034B194F8B2
:101560003500022805D080206065EBE00120BDE851
:10157000F88FCC4ECB4FCB491836DFF82883303765
:10158000DFF82093DFF81CA308F14808DFF814B354
:1015900009F1600920680AF1780A0BF1900B884282
:1015A0002ED0B0422CD0B8422AD0404528D0484551
:1015B00026D0504524D0584522D0BA4AA83290426D
:1015C0001ED0B94A90421BD0B74A1832904217D069
:1015D000B54A3032904213D0B34A483290420FD0CD
:1015E000B14A603290420BD0AF4A7832904207D075
:1015F000AD4A9032904203D0AB4AA832904209D112
:10160000026822F01E0202602068426922F0800215
:10161000426103E0026822F00E02026025688D42FA
:1016200028464DD0B0424BD0B84249D0404547D073
:10163000484545D0504543D0584541D0994AA832F5
:1016400090423DD0984A90423AD0974A1832904200
:1016500036D0954A3032904232D0934A4832904246
:101660002ED0914A603290422AD08F4A78329042EE
:1016700026D08D4A9032904222D08B4AA832904296
:101680001ED08A4A90421BD0884A1432904217D00A
:10169000864A2832904213D0844A3C3290420FD07E
:1016A000824A503290420BD0804A6432904207D036
:1016B0007E4A7832904203D07C4A8C32954204D1E3
:1016C000206E026822F480720260764920688842A7
:1016D00028D0B04226D0B84224D0404522D0484538
:1016E00020D050451ED058451CD06E49A8318842A4
:1016F00018D06D49884215D06B491831884211D0F5
:101700006949303188420DD067494831884209D053
:1017100065496031884205D063497831884201D0FB
:1017200061499031016821F0010101600EE000F093
:1017300059FB0099401A052808D92020606503202C
:1017400084F83500002084F834000FE72868C007CB
:10175000EDD1544A0121206890422ED0B0422CD0C5
:10176000B8422AD0404528D0484526D0504524D0FC
:10177000584522D04B4BA83398421ED04A4B984232
:101780001BD0494B1833984217D0474B30339842FF
:1017900013D0454B483398420FD0434B60339842A7
:1017A0000BD0414B7833984207D03F4B903398424F
:1017B00003D03D4BA833984208D194F85C30A06D1B
:1017C00003F01F053F23AB40836007E094F85C30D3
:1017D000A06D03F01F0301FA03F3436020689042F9
:1017E0004DD0B0424BD0B84249D0404547D0484593
:1017F00045D0504543D0584541D02A4AA83290425E
:101800003DD0294A90423AD0274A1832904236D0E9
:10181000254A3032904232D0234A483290422ED06C
:10182000214A603290422AD01F4A7832904226D014
:101830001D4A9032904222D01B4AA83290421ED0BC
:101840001A4A90421BD0194A1432904217D0174AB4
:101850002832904213D0154A3C3290420FD0134A9E
:10186000503290420BD0114A6432904207D00F4A56
:101870007832904203D00D4A8C3290420BD1D4E999
:1018800019024260E06E30B1026822F48072026098
:10189000D4E91C02426084F83510002084F834003A
:1018A00065E600001000024010040240085402588F
:1018B0002DE9F05F28B190F83510022904D080217D
:1018C00041650120BDE8F09F914A914B914D18323E
:1018D000904E3033DFF838C21835DFF834E248363E
:1018E000DFF83092DFF82CA20EF1600EDFF824B2A0
:1018F00009F1300901680AF1600A864C0BF1A80B66
:10190000614529D0914227D0994225D0804F483750
:10191000B94221D071451FD07D4F7837B9421BD0D5
:101920007B4F9037B94217D0794FA837B94213D0BF
:10193000A14211D0A9420FD049450DD0B1420BD0E0
:10194000514509D0734F7837B94205D0714F903760
:10195000B94201D059452FD1042780F8357061452F
:1019600025D0914223D0994221D069484830814204
:101970001DD071451BD066487830814217D064482D
:101980009030814213D06248A83081420FD0A142EA
:101990000DD0A9420BD0494509D0B14207D05145DD
:1019A00005D05C487830814201D05A4890300868B0
:1019B00020F001000860A8E0D1F8008028F00E08AF
:1019C000C1F800800168E04641452BD0914229D002
:1019D000994227D0DFF838C10CF1480C614521D07D
:1019E00071451FD0DFF828C10CF1780C614519D082
:1019F000DFF81CC10CF1900C614513D0DFF810C169
:101A00000CF1A80C61450DD0A1420BD0A94209D020
:101A1000494507D0B14205D0514503D0DFF8F4C0A5
:101A20000CF1780CD1F800C02CF0010CC1F800C00A
:101A300001684FF0010C414546D0914244D0994293
:101A400042D0334A483291423ED071453CD0304A70
:101A50007832914238D02E4A9032914234D02C4A7A
:101A6000A832914230D0A1422ED0A9422CD0494573
:101A70002AD0B14228D0514526D0264A7832914208
:101A800022D0B94220D059451ED0234A91421BD0C2
:101A9000214A1432914217D01F4A2832914213D062
:101AA0001D4A3C3291420FD01B4A503291420BD01A
:101AB000194A6432914207D0174A7832914203D0D2
:101AC000154A8C32914218D1016E0A6822F4807254
:101AD0000A6090F85C20816D02F01F020CFA02F29D
:101AE0004A60D0E919124A60C16E31B10A6822F425
:101AF00080720A60D0E91C124A6080F835C000216B
:101B000080F83410016D01B188470020DAE600004A
:101B100010000240100402400854025802480168B4
:101B200041F0010101607047200400582DE9F041A7
:101B3000042807463DD1DFF880800146404600F08A
:101B400041F91E4E00251E4C012805D0394640465D
:101B500000F038F940B127E030684562174801F0DD
:101B6000D9F9012060601FE0606801281CD113488A
:101B700001F010FA3068416A00EE101AB8EE400A1F
:101B800084ED000A6560406A4FF4AA719FED0D1B59
:101B9000484300EE100A0D48B8EE400B80EE012BD2
:101BA000B7EEC20B80ED000ABDE8F041082000F05E
:101BB000AEBABDE8F0810000000802583C000024E5
:101BC0000C000024000000000000694030000024E8
:101BD0004FF0B04110B5D1F88820024203D0C1F8CF
:101BE0008800FFF7A3FF10BD2DE9F84F694C0022D4
:101BF0004FF0B04A4FF0010B4FF003084FF00F09C0
:101C0000C0E00BFA02F6334073D00D7905F00305FE
:101C1000012D01D0022D15D18768550008FA05FC69
:101C200027EA0C07D1F80CC00CFA05FC4CEA070CAB
:101C3000C0F808C04568B5430E79C6F30016964053
:101C40002E4346600D79ED43AD0708D0C6685500B8
:101C500008FA05F7BE438F68AF403743C7600D7978
:101C600005F00305022D11D1D50800EB85073E6A6A
:101C70005507ED0E09FA05FC26EA0C06D1F810C04E
:101C80000CFA05FC4CEA060CC7F820C006685500A3
:101C900008FA05F7BE430F7907F00307AF40374353
:101CA00007604D6815F4403F6BD03B4D2E6846F001
:101CB00002062E602D6822F0030606F1B04605F0FC
:101CC00002050095D6F8087495074FEA157C09FAC5
:101CD0000CF5AF43314DA84201D100252EE0304D27
:101CE000A84201D1012529E02E4DA84202D10225AA
:101CF00024E046E02C4DA84201D103251EE02B4DE7
:101D0000A84201D1042519E0294DA84201D1052599
:101D100014E0284DA84201D106250FE0264DA84227
:101D200001D107250AE0254DA84201D1082505E08B
:101D3000234DA84201D1092500E00A2505FA0CF53A
:101D40003D43C6F80854DAF8005056464F689D43A4
:101D5000FF0200D51D43356075684F689D43BF0283
:101D600000D51D43756065684E689D43B60300D578
:101D70001D43656025684E689D43F60300D51D43ED
:101D80002560521C0B6833FA02F57FF43AAFBDE8C8
:101D9000F88F000080000058F444025800000258F8
:101DA0000004025800080258000C025800100258A3
:101DB0000014025800180258001C02580020025853
:101DC000002402580069084000D0012070470AB181
:101DD000816170470904FBE701480068000C704707
:101DE0000010005C0148806870470000000000247B
:101DF00070B5040004D094F84100002510B106E04D
:101E0000012070BD204684F8405000F0F9F82420ED
:101E100084F841002068016821F001010160216817
:101E2000606820F0706008612068816821F40041DA
:101E30008160E0680128A06807D040F40440216870
:101E40008860E068022803D006E040F40040F6E72E
:101E500021684FF40060486020684168114A1143CE
:101E600041602068C16821F40041C160D4E90401E7
:101E70000843A16940EA01202168C860D4E907014C
:101E80000843216808602068016841F00101016091
:101E90006564202084F84100256384F842500020C6
:101EA00070BD0000008000022DE9FF4F83B00446A2
:101EB00090F841009A469346DDE91087DDF8489096
:101EC000202871D15FEA080014D09FB194F8400037
:101ED000012869D0012084F84000FFF783FF012228
:101EE000064619230090D103204601F011FF002877
:101EF0006ED103E04FF40070606469E0212084F843
:101F00004100402084F8420000256564C4F8248024
:101F10006785534665635A4604992046CDE9009685
:101F200001F0ACFE10B184F8405051E0608DFF2705
:101F30004FF08078FF284FF0007A04D927853A4681
:101F40004346009505E0608D53462085009594F842
:101F500028202046049901F0C3FE32464946204617
:101F600001F039FFA0BB606A216800788862606A6E
:101F7000401C6062608D401E6085208D401E80B2D6
:101F80002085618DD9B1D0B900224B4680212046F1
:101F9000009601F0BDFED8B9608DFF2805D92785D0
:101FA0003A464346009506E026E0608D534620857C
:101FB000009594F828202046049901F091FE608D48
:101FC0000028CAD132464946204601F0D8FE18B151
:101FD000012007B0BDE8F08F20682021C161206892
:101FE0004268064B1A40426084F8411084F842501F
:101FF000002084F84050ECE70220EAE700E800FE09
:1020000000B5006887B01349884212D112480168B0
:1020100041F002010160006800F0020005900E48E6
:102020000830016841F400110160006800F40010FC
:10203000059004200490122001904FF4407000900D
:10204000002002900320039004486946FFF7CCFD6E
:1020500007B000BD00540040E0440258000402589C
:1020600002488168027811448160704700000024B2
:10207000032010B500F086F800F062FB0F4A1168EB
:102080001268C1F303230E49CB5C03F01F03D84051
:1020900002F00F02895C0B4A01F01F0120FA01F1E6
:1020A0001160094908600F2000F010F808B1012004
:1020B00010BD00F02BF8002010BD0000184402589D
:1020C00062550008380000243400002470B50D4D1E
:1020D00004462A78A2B14FF47A700B49B0FBF2F0B3
:1020E0000968B1FBF0F000F086FE48B9102C07D269
:1020F00000222146501E00F025F800206C6070BDC3
:10210000012070BD00000024340000247047002826
:1021100009DB012100F01F0291404009800000F11D
:10212000E020C0F880127047002809DB012100F090
:102130001F0291404009800000F1E020C0F800112A
:10214000704700000E4BF0B41B68C3F30223C3F1C9
:102150000704042C00D904241D1D072D01D20023DF
:1021600000E0DB1E012606FA04F56D1E0D409D40C1
:102170009E40761E164045EA0601F0BC03F0ADB85D
:102180000CED00E0064A00F0070110684FF6FF036F
:10219000184040EA012003490843106070470000DE
:1021A0000CED00E00000FA0510B500F083FA0549D7
:1021B0000968054AC1F30211515C01F01F01C840D2
:1021C00010BD00002044025862550008484910B56F
:1021D0000A68096802F00302454B1B1DC1F3053173
:1021E0001B68434C1434C3F300132468C4F3CC04B9
:1021F00014FB03F300EE103AB8EE400AE9B33C4B8F
:102200009FED3C1A1033F7EE000A62B1DFED3A1A87
:10221000012A01D0022A5ED002EE101AF8EE422AFC
:1022200081EEA22A1AE0324A283A1468A4060DD593
:102230001268C2F3C104314AE24001EE902AF8EE7E
:10224000612A01EE901AF8EE611A05E001EE901A8B
:10225000DFED2B2AF8EE611A82EEA12A1968C1F38C
:10226000080101EE901A1968F8EE611A40EE011AA1
:1022700031EEA00A22EE000A00E033E0C1F346216D
:1022800001EE101AB8EE411A31EE201AC0EE011A12
:10229000BCEEE11A80ED001A1968C1F3064101EEA7
:1022A000101AB8EE411A31EE201AC0EE011ABCEE37
:1022B000E11A80ED011A1968C1F3066101EE101AE6
:1022C000B8EE411A71EE200A80EE201ABCEEC10A67
:1022D00080ED020A10BD01EE901ADFED0A2AF8EE39
:1022E000611AB9E7002101604160816010BD000002
:1022F00028440258000000390024744A0090D0039A
:102300000024744C20BCBE4B484910B50A680968CB
:1023100002F00302454B1B1DC1F305511B68434CE2
:102320001C34C3F300232468C4F3CC0414FB03F36C
:1023300000EE103AB8EE400AE9B33C4B9FED3C1A70
:102340001833F7EE000A62B1DFED3A1A012A01D024
:10235000022A5ED002EE101AF8EE422A81EEA22A7C
:102360001AE0324A283A1468A4060DD51268C2F35E
:10237000C104314AE24001EE902AF8EE612A01EEF2
:10238000901AF8EE611A05E001EE901ADFED2B2AA3
:10239000F8EE611A82EEA12A1968C1F3080101EE74
:1023A000901A1968F8EE611A40EE011A31EEA00A8F
:1023B00022EE000A00E033E0C1F3462101EE101ADC
:1023C000B8EE411A31EE201AC0EE011ABCEEE11A45
:1023D00080ED001A1968C1F3064101EE101AB8EE3B
:1023E000411A31EE201AC0EE011ABCEEE11A80ED5E
:1023F000011A1968C1F3066101EE101AB8EE411A0C
:1024000071EE200A80EE201ABCEEC10A80ED020AAD
:1024100010BD01EE901ADFED0A2AF8EE611AB9E755
:10242000002101604160816010BD00002844025815
:10243000000000390024744A0090D0030024744C3A
:1024400020BCBE4B2DE9F05F04000D467ED0DFF8C6
:102450004492D9F8000000F00F00A8420CD2D9F83D
:10246000001021F00F012943C9F80010D9F800002D
:1024700000F00F00A84269D12078874E40070AD5A6
:102480002069316801F07001884204D9316821F077
:102490007001014331602078DFF8008200070CD51D
:1024A00060694146D8F8002002F07002904204D9D9
:1024B0000A6822F0700202430A602078C0060CD538
:1024C000A0694146D8F8002002F4E062904204D9A5
:1024D0000A6822F4E06202430A602078DFF8C0B1A3
:1024E00080060CD5E0695946DBF8002002F0700246
:1024F000904204D90A6822F0700202430A602078F0
:1025000080070AD5E068316801F00F01884204D9DC
:10251000316821F00F01014331602078C0073DD0C0
:102520003068A16820F47060084330605A496068E0
:102530001839022818D0032819D00968012819D0A1
:102540004907002949DADFF850A100E045E0AAF187
:10255000080ADAF8001021F007010143CAF8001058
:10256000FFF740FC074611E009688903E9E70968BD
:102570008901E6E7C905E4E7FFF734FCC11B41F236
:102580008830814202D90320BDE8F09FDAF80000CC
:10259000616800F03800B0EBC10FEDD12078800702
:1025A0000AD5E068316801F00F01884204D2316831
:1025B00021F00F0101433160D9F80010484601F0C5
:1025C0000F01A9420BD9016821F00F0129430160D5
:1025D000006800F00F00A84201D00120D4E7207865
:1025E00040070AD52069316801F07001884204D2A1
:1025F000316821F0700101433160207800070CD56B
:1026000060694146D8F8002002F07002904204D27E
:102610000A6822F0700202430A602078C0060CD5D6
:10262000A0694246D8F8001001F4E061884204D263
:10263000116821F4E06101431160207880060CD517
:10264000E0695946DBF8002002F07002904204D2A3
:102650000A6822F0700202430A6000F071F83168E3
:10266000C1F303220F498A5C02F01F02D040326896
:1026700002F00F02895C0C4A01F01F0120FA01F1FF
:1026800011600A4908600A480068BDE8F05FFFF77A
:102690001DBD000000200052184402581C4402587E
:1026A00020440258625500083800002434000024F9
:1026B0000400002400B500F043F80B4A11681268CA
:1026C000C1F303230949CB5C03F01F03D84002F098
:1026D0000F02895C064A01F01F0120FA01F1116026
:1026E000044A1060084600BD1844025862550008AC
:1026F000380000243400002400B5FFF7DBFF054953
:102700000968054AC1F30211515C01F01F01C8407C
:1027100000BD00001C4402586255000800B5FFF7D8
:10272000C9FF05490968054AC1F30221515C01F05E
:102730001F01C84000BD00001C440258625500083B
:10274000434830B50068444C10F03801414808D087
:102750000211082903D010290BD018290BD01046DC
:1027600030BD21688906FBD52168C1F3C101C8408D
:1027700030BD3A4830BD364918310A68096802F060
:102780000302334B1C33C1F305111B68304D03F0BA
:10279000010324352D68C5F3CC0515FB03F300EECA
:1027A000103AB8EE400AE9B3294BDFED2D0A203389
:1027B000B7EE001A62B1DFED2B1A012A01D0022A0E
:1027C0003CD002EE101AF8EE422A81EEA22A17E05F
:1027D000226892060CD52268C2F3C102D04001EEF5
:1027E000900AF8EE612A01EE901AF8EE611A05E0FF
:1027F00001EE901ADFED1C2AF8EE611A82EEA12A92
:102800001868C0F3080001EE900A1868F8EE611A23
:1028100040EE201A31EE810A22EE000AC0F3462073
:10282000401C00E011E000EE900AF8EE600A80EE35
:10283000201ABCEEC10A10EE100A30BD01EE901A4B
:10284000DFED0A2AF8EE611AD8E7002030BD00005B
:10285000104402580090D0030044025840787D0193
:10286000000000390024744A0024744C20BCBE4B84
:102870002DE9F05F040079D02078DFF8F8A3FE4E50
:10288000FE4DC00747D0DAF80000316800F038008C
:10289000102815D0182803D101F0030002280FD00A
:1028A0006068B0F5803F12D010B1B0F5A02F18D0FD
:1028B000286820F480302860286820F4802009E00F
:1028C0002868800327D560680028D4D023E02868D2
:1028D00040F480302860606888B1FFF783FA0746CB
:1028E00009E0286840F480202860F0E7FFF77AFAD2
:1028F000C01B642872D828688003F7D50BE0FFF767
:1029000071FA074604E0FFF76DFAC01B6428F1D89E
:1029100028688003F7D4207841F20309D84F800754
:1029200066D5DAF80000316810F038000ED01828AB
:1029300001D188070AD0E06880B3296821F0190125
:1029400001432960FFF74EFA80462EE028684007D1
:1029500002D5E06800288ED02868E16820F01900D0
:1029600008432860FFF73EFA804606E0D8E0FFF70C
:1029700039FAA0EB08000228BCD828684007F6D531
:10298000FFF72AFA48451AD82069402811D039683B
:1029900021F47C3141EA0030386029E016E0FFF78D
:1029A00021FAA0EB08000228A4D828684007F6D531
:1029B000E6E7386820F47C3040F40030ECE7386813
:1029C000217C20F0FE4040EA0160E5E7286820F025
:1029D00001002860FFF706FA804606E000E1FFF7F5
:1029E00001FAA0EB0800022884D828684007F6D432
:1029F0002078C0065AD5DAF80000316800F03800B7
:102A0000DFF870B20828ABF1040B10D0182803D1FE
:102A100001F0030001280AD0E0690028286836D0B8
:102A200040F080002860FFF7DDF9804621E028684B
:102A3000C00521D5E069802872D11DE0206A2028D8
:102A40001FD0396821F0F84141EA806038602DE0FC
:102A5000DBF8001094F8202021F07C5141EA02615B
:102A6000CBF8001022E0FFF7BDF9A0EB0800022828
:102A70009AD82868C005F6D5FFF7AEF94845E7D8DB
:102A8000DCE7386820F0F84040F08040DEE720F0D6
:102A900080002860FFF7A6F9074604E0FFF7A2F9D7
:102AA000C01B0228A0D82868C005F7D420780007EA
:102AB00028D5714960694C31002888460846096864
:102AC00010D041F001010160FFF78CF9074604E0E6
:102AD000FFF788F9C01B022886D8D8F800008007C5
:102AE000F6D50FE021F001010160FFF77BF9074601
:102AF00004E0FFF777F9C01B022871D8D8F800006E
:102B00008007F6D42078800623D5A069002828689D
:102B100010D040F480502860FFF764F9074605E0C4
:102B200038E1FFF75FF9C01B022859D828688004F4
:102B3000F7D50EE020F480502860FFF753F90746E0
:102B400004E0FFF74FF9C01B022849D82868800429
:102B5000F7D4207840074DD5DFF82881D8F8001049
:102B600041F48071C8F80010FFF73CF9074604E013
:102B7000FFF738F9C01B642832D8D8F80000C00528
:102B8000F6D53D4FA068483701280AD008B105287E
:102B900013D0386820F001003860386820F0040055
:102BA00002E0386840F001003860A06841F28839DE
:102BB00090B1FFF717F980460AE0386840F004004A
:102BC0003860EEE7FFF70EF9A0EB0801494507D89A
:102BD00038688007F6D50DE0FFF704F9804606E077
:102BE00083E0FFF7FFF8A0EB080149457DD838687E
:102BF0008007F6D4616AD9B3DAF800004FF6F87BA3
:102C0000DFF8748008F10808C0F3C200032808F157
:102C10000409A8F1040A69D02868022920F080700C
:102C2000286003D0FFF7DEF8044688E0FFF7DAF803
:102C3000074604E0FFF7D6F8C01B02287CD82868B6
:102C40008001F7D4306840F2F3318843E16A40EA0A
:102C50000110A16A0843306094F83400218E4002CC
:102C6000491EA0F5007080B2C1F3080108430BE0D3
:102C7000B3E00000104402582844025800440258AF
:102C80000444025800480258218F4FF4FE02491EA6
:102C900002EA0141084394F83C101202491E02EA7C
:102CA00001610843C8F80000DAF80010504621F02E
:102CB0000101CAF80010D9F80020A36C22EA0B0227
:102CC00042EAC302C9F80020DAF80010226C21F0B1
:102CD0000C011143CAF80010DAF80010626C21F000
:102CE000020111430160016801E025E02BE041F49D
:102CF00080310160016841F400310160016841F4F4
:102D000080210160016841F001010160286840F004
:102D100080702860FFF766F8044604E0FFF762F869
:102D2000001B022808D828688001F7D555E0FFF776
:102D300059F8001B022802D90320BDE8F09F28683B
:102D40008001F4D449E03268D8F80000012921D08C
:102D5000A36A02F0030199421CD1E16AC2F3051291
:102D6000914217D1216BC0F30802491E8A4211D14A
:102D7000616BC0F34622491E91420BD1A16BC0F397
:102D80000642491E914205D1E16BC0F30660491E1F
:102D9000814201D00120D0E7D9F800004F46A16C54
:102DA000C0F3CC00814218D0DAF80000564620F07B
:102DB0000100CAF80000FFF715F80546FFF712F802
:102DC000A842FBD03868A16C20EA0B0040EAC100A1
:102DD0003860306840F0010030600020ADE74FF00F
:102DE000E0210428086903D020F00400086170473E
:102DF00040F00400FAE7401EB0F1807F10B501D327
:102E0000012010BD4FF0E02460610F21601702F037
:102E100064FA0020A06107202061002010BD10B5D9
:102E2000040003D094F83D0010B107E0012010BD6C
:102E3000002084F83C00204600F022F8022084F8AC
:102E40003D002068211D01F0F1F9012084F84800BF
:102E500084F83E0084F83F0084F8400084F8410084
:102E600084F8420084F8430084F8440084F8450064
:102E700084F8460084F8470084F83D00002010BD27
:102E800070B520490123006802241E4A0839032531
:102E9000B0F1804F86B01ED01B4EB04219D11068E1
:102EA00040F004001060106800F00400059008680D
:102EB00040F0080008600868694600F00800CDE9A5
:102EC0000440D803CDE900041048CDE90235FEF7EF
:102ED0008BFE06B070BD106840F0010010601068F5
:102EE00000F001000590086840F0010008600868E3
:102EF000694600F00100CDE904300F20CDE900045F
:102F00000348E2E7E844025800080040000C025879
:102F10000000025890F83D10012901D001207047AF
:102F2000022180F83D1000681249884214D0B0F1A7
:102F3000804F11D0104988420ED0104988420BD0E2
:102F40000F49884208D00F49884205D00E4988426F
:102F500002D00E49884207D181680D4A11400629E6
:102F600006D0B1F5803F03D0016841F00101016056
:102F700000207047000001400004004000080040AD
:102F8000000C0040000401400018004000400140D7
:102F90000700010001680A6A41F211131A4207D1C1
:102FA0000A6A9B101A4203D10A6822F001020A60E1
:102FB000012180F83D1000207047000070B50446E4
:102FC00090F83C000025012815D0012684F83C60CB
:102FD000022084F83D0020688268364B1A4022F4B3
:102FE0007F4282600868702802462FD010DC10F003
:102FF0000F0F03D022E04FF0020070BD4FEA201007
:1030000007281BD2DFE800F0535353534B394100DC
:10301000B0F1101F4BD009DCB0F5805F0FD0B0F5D8
:10302000005F1ED0B0F5801F08D140E02038B0F519
:1030300080103CD010283AD0202838D0012584F8C0
:103040003D60002084F83C00284670BD4A68206836
:10305000D1E9021301F057F92068816841F0770146
:1030600009E04A682068D1E9021301F04CF92068B0
:10307000816841F480418160E1E7CA68496820685D
:1030800001F0DEFA2068502106E0CA68496820682D
:1030900001F0E7FA2068602101F040F9CFE7CA6843
:1030A0004968206801F0CCFA20684021F4E72068E4
:1030B0001146F1E788FFCEFF70B5044690F83C005A
:1030C000002501280BD0012084F83C000C2A1ED0DA
:1030D00007DC82B1042A12D0082A06D113E00220AC
:1030E00070BD102A17D0142A19D00125002084F8A9
:1030F0003C00284670BD206801F01AF9F6E7206808
:1031000001F064F9F2E7206801F0A8F9EEE7206821
:1031100001F0ECF9EAE7206801F022FAE6E720681E
:1031200001F056FAE2E710B5040003D094F83D0030
:1031300010B107E0012010BD002084F83C002046BB
:1031400000F022F8022084F83D002068211D01F0E3
:103150006DF8012084F8480084F83E0084F83F00B0
:1031600084F8400084F8410084F8420084F8430069
:1031700084F8440084F8450084F8460084F8470049
:1031800084F83D00002010BD7047000030B50446B3
:1031900069B104290ED008290FD00C2910D01029AC
:1031A00011D094F84300012810D0012030BD94F8CC
:1031B0003E00F8E794F83F00F5E794F84000F2E7A6
:1031C00094F84100EFE794F84200ECE70220E9B3FD
:1031D000042948D0082949D00C294AD010294BD0BD
:1031E00084F843000122206801F080F82449206817
:1031F000244A254B884209D0904207D0984205D0F6
:10320000224DA84202D0224DA84203D1456C45F47C
:10321000004545642068884212D0B0F1804F0FD03D
:103220001C4988420CD01C49884209D01B4988425D
:1032300006D0904204D01A49884201D0984209D160
:103240008168184A1140062908D000E008E0B1F56D
:10325000803F03D0016841F001010160002030BDD2
:1032600084F83E00BEE784F83F00BBE784F84000E6
:10327000B8E784F84100B5E784F84200B2E70000FF
:1032800000000140000401400040014000440140B2
:10329000004801400004004000080040000C0040CD
:1032A000001800400700010070B5044690F83C008B
:1032B00000260D4601280BD0012084F83C000C2A82
:1032C0004AD007DC82B1042A20D0082A06D131E096
:1032D000022070BD102A53D0142A63D0012600208A
:1032E00084F83C00304670BD206801F021F8206869
:1032F000816941F0080181612068816921F0040140
:103300008161206881692A69114311E0206801F018
:103310005DF82068816941F40061816120688169FC
:1033200021F480618161206881692A6941EA022172
:103330008161D4E7206801F091F82068C16941F00B
:103340000801C1612068C16921F00401C1612068E0
:10335000C1692A69114311E0206801F0C7F82068AB
:10336000C16941F40061C1612068C16921F48061D3
:10337000C1612068C1692A6941EA0221C161AEE7E1
:10338000206801F0EDF82068416D41F008014165C9
:103390002068416D21F0040141652068416D2A6972
:1033A000114311E0206801F013F92068416D41F4E8
:1033B000006141652068416D21F4806141652068AC
:1033C000416D2A6941EA0221416588E710B5040090
:1033D00003D094F83D0010B107E0012010BD00209B
:1033E00084F83C00204600F022F8022084F83D00DA
:1033F0002068211D00F01AFF012084F8480084F89D
:103400003E0084F83F0084F8400084F8410084F8CE
:10341000420084F8430084F8440084F8450084F8AE
:10342000460084F8470084F83D00002010BD704736
:1034300030B5044669B104290ED008290FD00C29F3
:1034400010D0102911D094F84300012810D0012089
:1034500030BD94F83E00F8E794F83F00F5E794F8A3
:103460004000F2E794F84100EFE794F84200ECE7FF
:103470000220E9B3042948D0082949D00C294AD0B0
:1034800010294BD084F843000122206800F02EFF61
:1034900024492068244A254B884209D0904207D00D
:1034A000984205D0224DA84202D0224DA84203D115
:1034B000456C45F4004545642068884212D0B0F15F
:1034C000804F0FD01C4988420CD01C49884209D03B
:1034D0001B49884206D0904204D01A49884201D044
:1034E000984209D18168184A1140062908D000E0A5
:1034F00008E0B1F5803F03D0016841F001010160AF
:10350000002030BD84F83E00BEE784F83F00BBE7F2
:1035100084F84000B8E784F84100B5E784F8420039
:10352000B2E70000000001400004014000400140FB
:1035300000440140004801400004004000080040F1
:10354000000C004000180040070001007047704761
:10355000704770477047D0F88810D0F88C00084347
:10356000704700002DE9F04107680446F8693968A2
:10357000BA6840F60F0318424FF000054FF00206FC
:103580000AD183067ED501F0200302F0805C53EA65
:103590000C0377D0616F73E1CE4BDFF83CC313406F
:1035A00001EA0C0C53EA0C0C6CD05FEAC07C0CD026
:1035B0005FEAC15C09D54FF0010CC7F820C0D4F810
:1035C000907047F00107C4F89070870709D5D707B6
:1035D00007D027683E62D4F8906046F00406C4F82D
:1035E000906046070AD5D60708D0276804263E62B1
:1035F000D4F8906046F00206C4F8906006070CD537
:1036000001F020061E4308D0266808233362D4F850
:10361000903043F00803C4F8903003050BD54B01FC
:1036200009D526684FF400633362D4F8903043F034
:103630002003C4F89030D4F89030002B3DD08006A1
:1036400009D501F0200002F08051084303D0616FDA
:1036500009B120468847D4F8900021688968490656
:1036600002D410F0280F2AD0204601F0D1F82068AB
:10367000806840061ED52068083050E8001F21F001
:10368000400100E021E040E80012002AF3D1D4F824
:10369000800078B191490165D4F88000FEF708F9FF
:1036A00000280AD0D4F88000016D00E02046BDE873
:1036B000F04108472046FFF74DFFBDE8F081204666
:1036C000FFF748FFC4F89050F7E7D4F86CC0202308
:1036D000BCF1010F7ED15FEAC06C7BD55FEAC16CA3
:1036E00078D51020386220688068400673D5D4F8F9
:1036F00080107B4A0868904234D0794A1832904250
:1037000030D0774A303290422CD0754A48329042BD
:1037100028D0734A6032904224D0714A7832904265
:1037200020D06F4A903290421CD06D4AA83290420D
:1037300018D06C4A904215D06A4A1832904211D083
:10374000684A303290420DD0664A4832904209D0E1
:10375000644A6032904205D0624A7832904201D089
:10376000604A903240680004000CA6D0B4F85C2097
:103770008242A2D9A4F85E00C869B0F5807F2FD03C
:10378000206850E8001F21F4807140E80012002AF0
:10379000F6D12068083050E8001F21F0010140E810
:1037A0000012002AF5D12068083050E8001F21F0EF
:1037B000400140E80012002AF5D1C4F88C30E566DB
:1037C000206850E8001F21F0100140E80012002A94
:1037D000F6D101E03FE00BE0D4F88000FDF7B8FE41
:1037E0002667B4F85C00B4F85E10401A81B22EE08F
:1037F000B4F85C00B4F85E10401A81B2B4F85E0010
:103800000028B2D00029B0D0206850E8002F22F460
:10381000907240E80027002FF6D12E4FFF4320681A
:10382000083050E8002F3A4040E8002CBCF1000F6F
:10383000F5D1C4F88C30E5666567206850E8002F44
:1038400022F0100240E80023002BF6D12667204624
:10385000FFF77CFE31E7C60209D5560207D54FF4C3
:10386000801038622046BDE8F041FFF772BE0606C0
:103870000AD501F0800602F40002164304D0A16FBD
:1038800000297FF413AF18E7420611D54A060FD579
:103890002046016851E8002F22F0400241E8002450
:1038A000002CF6D1C0F88830856700F0E3F804E713
:1038B000020206D54A0004D52046BDE8F041FFF7D4
:1038C00047BEC001C6D50029C4DA2046BDE8F04194
:1038D000FFF73DBE0100001020010004FB47000877
:1038E000100002401004024010B5040003D0D4F8C8
:1038F000880010B107E0012010BD002084F884008A
:10390000204600F027F82420C4F8880020680168C9
:1039100021F001010160204601F008FA0128EBD0F6
:10392000A06A10B1204600F0AEFE2068416821F484
:10393000904141602068816821F02A0181602068FF
:10394000016841F0010101602046BDE8104000F02F
:10395000FEBE000010B5006886B01B49884230D119
:103960001A48016841F001010160006800F001009F
:10397000059016481030016841F0100101600068A0
:103980000121134C00F0100005904FF400700090DE
:103990000220CDE9010103900720694604902046EA
:1039A000FEF722F94FF48061204600916946FEF748
:1039B0001BF92520FEF7B8FB032225201146FEF750
:1039C000C1FB06B010BD000000100140E0440258E9
:1039D0000000025830B4D0F88C30202B02D00220E6
:1039E00030BC7047A9B1A2B10023C3660A4C03687A
:1039F000A3420BD05B681B0208D5036853E8004F55
:103A000044F0806443E80045002DF6D130BC01F05D
:103A10005BBB0120E4E70000000C005830B50068F3
:103A2000114988420CD1114A5088010408D411462A
:103A30004FF000034404097806D50A2901D05380C9
:103A400030BD40F400400DE00D2909D0084DC0F311
:103A50000D04401C80B2C72829555080EFD830BDD6
:103A600040F48040508030BD00100140240000240C
:103A7000AC01002470470000154830B587B00168DC
:103A800041F00401016000680024124D694600F015
:103A900004000590012001900220029403940090FC
:103AA0002846FEF7A1F804204FF444118DE81300D6
:103AB0000320694603902846FEF796F8002201216C
:103AC0000820FEF73FFB0820FEF72EFB07B030BDB5
:103AD000E04402580008025810B5084C01220221A7
:103AE0002046FEF774F90F2001F012FC0022204658
:103AF000BDE810400221FEF76AB900000008025834
:103B0000104800B585B0016841F0200101600068EF
:103B100042F210720C4900F0200004900B48016042
:103B200000210161C0E90212521E42608161FFF76B
:103B300076F94FF48050009004486946FFF73EFA4A
:103B400005B000BDE8440258001400403C000024C9
:103B5000FEE701688A69D243920701D400228A6293
:103B600000688169C943C90703D0816941F0010137
:103B7000816170472DE9F047044600688846174682
:103B80000026816935464FF02009C90641D510212C
:103B9000C1612FE0B8F1FF3F2CD0FEF723F9C11B24
:103BA000414502D8B8F1000F24D12068416894F84B
:103BB000422001F480418369DB431B0415D4B1F535
:103BC000804F12D0202A10D0416841F480414160DA
:103BD000FEF708F9074608E0FEF704F9C01B1928AC
:103BE00003D9012645F0200504E020688069C04320
:103BF0008006F1D420688069C043800602D5002E7B
:103C0000C8D003E016B92168C1F81C90012645F020
:103C1000040521688869C20505D545F001054FF402
:103C20008072CA610126410506D5226845F0080563
:103C30004FF48061D1610126800507D5216845F0E8
:103C400002054FF40070C861012600E086B12046ED
:103C5000FFF77FFF54F8240B4168074A1140416089
:103C6000206A2843206284F81D900020A0772077E6
:103C70003046BDE8F087000000E800FE2DE9F8437B
:103C80000446164816469846DAB20090C30220460B
:103C9000DDE9089700F024F83A464946204600F04E
:103CA0009AF8B8B9B8F1010FF5B208D02168300A16
:103CB00088623A464946204600F08DF850B920689F
:103CC0008562002280214B462046009700F020F8B4
:103CD000002800D00120BDE8F8830000002000800B
:103CE00010B50068C1F3090141EA0241029C194381
:103CF0004268214321F000414FF4806303EA5453AA
:103D0000024C23439A430A43426010BDFF63FF0302
:103D10002DE9F0411D4617460E460446DDF8188091
:103D200021E0681C1FD0FEF75DF8A0EB0800A84258
:103D300000D8C5B92068806936EA000011D000209B
:103D4000B84210D1606C40F020006064202084F8FC
:103D50004100002084F8420084F840000120BDE8C2
:103D6000F0810120ECE72068806936EA000004D089
:103D70000020B842D5D00020F1E70120F9E770B566
:103D800016460D4604461FE0324629462046FFF7F8
:103D9000F1FE08B1012070BDFEF724F8801BA84297
:103DA00000D88DB920688069C04380060CD5606C4E
:103DB00040F020006064202084F84100002084F856
:103DC000420084F84000E5E720688069C04380062F
:103DD000DAD4002070BD70B516460D46044621E0C9
:103DE000324629462046FFF7C5FE08B1012070BDC6
:103DF000681C17D0FDF7F6FF801BA84200D88DB9CC
:103E000020688069C04380070CD5606C40F02000BA
:103E10006064202084F84100002084F8420084F887
:103E20004000E3E720688069C0438007D8D40020C1
:103E300070BD0000FEB52D4800252B49012602C0AB
:103E40002B4980E86200C560056145618561C561F7
:103E5000001FFDF7CDFF274C09200123671C192205
:103E60006070D02120780097CDE901601F48FEF7EF
:103E70001BF86670012320786B220097D021CDE9D2
:103E800001601A48FEF710F86570012320786C2253
:103E90000097D021CDE901601448FEF705F806200F
:103EA00060702078012300971A22D021CDE90160AB
:103EB0000E48FDF7F9FF1820607020780123009765
:103EC0001B22D021CDE901600848FDF7EDFF6570A8
:103ED000012320781C220097D021CDE901600348FE
:103EE000FDF7E2FFFEBD0000005400408800002402
:103EF000FFEAC00014000024FEE770471B48602161
:103F000010B501600021816041604C38FFF70BF96A
:103F100016490022A1F14C00FFF7CEF81349042204
:103F2000A1F14C00FFF7C8F810490822A1F14C009C
:103F3000FFF7C2F80D490C22A1F14C00FFF7BCF8C5
:103F40000A4800214C38FFF721F9084804214C3871
:103F5000FFF71CF9054808214C38FFF717F903480B
:103F60000C21BDE810404C38FFF710B99001002437
:103F70000B48602110B501600021816041604C3820
:103F8000FFF7D1F806490C22A1F14C00FFF794F895
:103F900003480C21BDE810404C38FFF7F7B800008B
:103FA000280100241748602110B5016000218160BC
:103FB00041601548FFF70AFA124900221248FFF73C
:103FC00073F9104904221048FFF76EF90D490822D1
:103FD0000D48FFF769F90B490C220B48FFF764F90C
:103FE00009480021FFF724FA07480421FFF720FAC7
:103FF00005480821FFF71CFABDE8104002480C21D3
:10400000FFF716BA90010024440100240B486021F8
:1040100010B501600021816041604C38FFF7D6F98E
:1040200006490C22A1F14C00FFF73EF903480C2190
:10403000BDE810404C38FFF7FBB900002801002410
:104040007047704770B52B4C9CB0256825F004056F
:104050002560294C0026256825F001052560246887
:10406000244C0C34256845F440452560256805F44A
:1040700040451B952568AD04FCD5012400940CAD8A
:1040800003962404019402240994CDE90A41079679
:10409000082485E80D00CDE910466846FEF7E8FBE8
:1040A00088B93F2013900320CDE914064020010178
:1040B000CDE91640CDE9180150201A90022113A82D
:1040C000FEF7C0F910B101201CB070BD0B480168AB
:1040D00041F0800101600948F430016841F00201BB
:1040E0000160006800F002001B90FDF717FD002042
:1040F000EAE700000C4802582C040058004402581B
:10410000FDF7AEBF2048016841F4700101601F490E
:10411000086840F0010008601C4A0020103210605E
:104120000A681B4B1A400A60184A18321060121DA8
:104130001060121D1060154A28321060121D1060A8
:10414000121D1060121D1060121D1060121D1060F3
:10415000121D1060121D10600A6822F480220A608D
:104160000A49603108600B4800686FF30F00B0F136
:10417000005F03D208490120C1F808014FF0006038
:10418000014980390860704788ED00E0004402581A
:104190007FEDF6EA0010005C0080005100B58BB0A6
:1041A0006321002003901822CDE9010104900B48FF
:1041B00000914FF0804102C06946FCF7E1F90748E1
:1041C000FEF72DFE4FF480500690044806A9FEF736
:1041D000F5FE0248FEF79EFE0BB000BD4401002430
:1041E00000B58BB040F20771002018220390CDE992
:1041F0000101049040F256410B480091094902C068
:104200006946FCF7BDF90848FEF709FE4FF48050F7
:104210000690054806A9FEF7D1FE0348FEF77AFE90
:104220000BB000BD00080040DC0000242DE9F04781
:1042300002684FF0804A254C254D264EA042264F5D
:10424000264B09D0504507D0A84205D0B04203D034
:10425000B84201D0984204D122F0700C4A6842EA78
:104260000C02DFF87CC0DFF87C80A042DFF8789099
:104270000FD050450DD0A8420BD0B04209D0B84263
:1042800007D0984205D0604503D0404501D048454D
:1042900003D122F44075CA682A434D6922F0800296
:1042A0002A4302608A68C2620A688262A04207D01A
:1042B000984205D0604503D0404501D0484501D122
:1042C0000969016301214161BDE8F08700000140F7
:1042D0000004004000080040000C004000040140C1
:1042E000004001400044014000480140012301F02A
:1042F0001F0110B5046A8B409C430462036A8A4024
:104300001343036210BD10B5846842EA03220A43D6
:1043100024F47F442243826010BD00008268034B76
:104320001A400A4342F00701816070478FFFCFFFB8
:104330002DE9F043026A22F001020262056A426836
:10434000836925F002051B4C1C4E23400C6823F0AA
:1043500003031B4F1C438B68DFF868C02B43164DCB
:10436000DFF86490A84207D0B04205D0B84203D02D
:10437000604501D0484506D123F00808CB6843EAE0
:10438000080323F00403A84207D0B04205D0B84286
:1043900003D0604501D0484505D14D6922F44072F3
:1043A00015438A692A434260846149684163036214
:1043B000BDE8F0838FFFFEFF0000014000040140D4
:1043C000004001400044014000480140F0B5026A4D
:1043D00022F010020262056A42688369194C1B4E82
:1043E00023400C6823F4407343EA042425F020039F
:1043F0008D6843EA0513144DA84201D0B04206D19E
:10440000CF6823F0800343EA071323F04003A84258
:104410000AD0B04208D00E4DA84205D00D4DA8429A
:1044200002D00D4DA84207D14D6922F4406242EA04
:1044300085028D6942EA8502426084614968816330
:104440000362F0BDFF8FFFFE000001400004014049
:10445000004001400044014000480140F0B5026ABC
:1044600022F480720262056A4268C369194C1B4ECD
:1044700023400C6823F003031C4325F400738D686C
:1044800043EA0523144DA84201D0B04206D1CF68BB
:1044900023F4006343EA072323F48063A8420AD08D
:1044A000B04208D00E4DA84205D00E4DA84202D011
:1044B0000D4DA84207D14D6922F4405242EA05123F
:1044C0008D6942EA05124260C4614968C1630362B2
:1044D000F0BD00008FFFFEFF00000140000401401E
:1044E00000400140004401400048014030B5026AEC
:1044F00022F480520262046A4268C369124D2B4062
:104500000D6823F4407343EA052524F400538C68B6
:1045100043EA04330D4CA0420BD00D4CA04208D00E
:104520000C4CA04205D00C4CA04202D00B4CA04237
:1045300004D14C6922F4804242EA84124260C5618F
:1045400049680164036230BDFF8FFFFE0000014037
:104550000004014000400140004401400048014087
:1045600030B5026A22F480320262056A4268436D05
:10457000114C23400C681C4325F400330D8943EA99
:1045800005430E4DA8420BD00D4DA84208D00D4D4D
:10459000A84205D00C4DA84202D00C4DA84204D12F
:1045A0004D6922F4803242EA05224260446549683E
:1045B0008165036230BD00008FFFFEFF00000140F7
:1045C0000004014000400140004401400048014017
:1045D00030B5026A22F480120262056A4268436DB5
:1045E000114C23400C6843EA042425F400130D8980
:1045F00043EA05530D4DA8420BD00D4DA84208D0FB
:104600000C4DA84205D00C4DA84202D00B4DA8423B
:1046100004D14D6922F4802242EA85224260446539
:104620004968C165036230BDFF8FFFFE0000014095
:1046300000040140004001400044014000480140A6
:1046400010B5046A036A23F001030362836923F04F
:10465000F00343EA0213836124F00A020A43026270
:1046600010BD10B5036A23F0100303628469036A66
:1046700024F4704423F0A00344EA0232826143EA46
:104680000111016210BD90F82810C90706D0016819
:104690004A68C36A22F400321A434A6090F828102C
:1046A000890706D501684A68036B22F480321A43F1
:1046B0004A6090F82810490706D501684A68436B9C
:1046C00022F480221A434A6090F82810090706D580
:1046D00001684A68836B22F400421A434A6090F8EA
:1046E0002810C90606D501688A68C36B22F4805277
:1046F0001A438A6090F82810890606D501688A68EE
:10470000036C22F400521A438A6090F8281049067C
:1047100011D501684A68436C22F480121A434A603A
:10472000416CB1F5801F06D101684A68836C22F4A0
:10473000C0021A434A6090F82810090606D501689D
:104740004A68C06C22F4002202434A6070472DE997
:10475000F84300250446C0F89050FDF743FB80461F
:10476000206800686FF07E474FF02006000713D5E1
:104770000022434631042046009700F02DFD58B139
:10478000206850E8001F21F0800140E80012002A54
:10479000F6D1C4F8886021E020680068400722D57F
:1047A000002243464FF480012046009700F014FD9C
:1047B000C8B1206850E8001F21F4907140E8001251
:1047C000002AF6D12068083050E8001F21F00101CE
:1047D00040E80012002AF5D1C4F88C60032084F868
:1047E0008450BDE8F883C4F88860C4F88C60E5663E
:1047F0002567002084F88450F3E710B5806B002112
:10480000A0F85E10A0F85610FEF7A4FE10BD000040
:1048100010B5016851E8002F22F4907241E800239E
:10482000002BF6D10E4B0168083151E8002F1A40D9
:1048300041E80024002CF6D1C16E012908D101689D
:1048400051E8002F22F0100241E80023002BF6D19E
:104850002021C0F88C100021C166416710BD000006
:10486000FEFFFFEF10B5B0F86020D0F88C30016883
:10487000222B04D0886940F00800886110BD496A85
:10488000836D11401980816D891C8165B0F85E10BF
:10489000491EA0F85E10B0F85E100029EED1016844
:1048A00051E8002F22F4907241E80023002BF6D14A
:1048B0000168083151E8002F22F0010241E800238D
:1048C000002BF5D12021C0F88C1000244467046728
:1048D000154A016891420BD04968090208D5016860
:1048E00051E8002F22F0806241E80023002BF6D12E
:1048F000C16E012902D0FFF791F810BDC4660168AE
:1049000051E8002F22F0100241E80023002BF6D1DD
:104910000168CA69D243D20601D410220A62B0F8F3
:104920005C10FEF713FE10BD000C00582DE9F04797
:10493000B0F8609004460068C56907688668D4F8D6
:104940008C10222905D0816941F008018161BDE800
:10495000F087B4F868804FF0000A73E02068406A7E
:10496000A16D00EA09000880A06D801CA065B4F864
:104970005E00401EA4F85E002068C56969072DD05E
:10498000E90709D0F90507D501210162D4F89000A3
:1049900040F00100C4F89000A8070AD5F00708D03D
:1049A000216802200862D4F8900040F00400C4F8A6
:1049B000900068070AD5F00708D021680420086233
:1049C000D4F8900040F00200C4F89000D4F89000B1
:1049D00020B12046FEF7BEFDC4F890A0B4F85E00FA
:1049E00080BB206850E8001F21F4807140E800126D
:1049F000002AF6D1314A2068083050E8001F1140E3
:104A000040E80013002BF6D12020C4F88C00C4F835
:104A100074A05246C4F870A02949206888420BD07F
:104A20004068000208D5206850E8001F21F080612E
:104A300040E80013002BF6D1E06E012827D0204675
:104A4000FEF7ECFFB8F1000F01D0A80686D4B4F849
:104A50005E0000283FF47BAFB4F8681081427FF617
:104A600076AF2068083050E8001F21F0805140E800
:104A70000012002AF5D113486067206850E8001F33
:104A800041F0200140E80012002AF6D15FE7E2661B
:104A9000206850E8001F21F0100140E80012002AB1
:104AA000F6D12068C169C943C90601D41021016249
:104AB000B4F85C102046FEF749FDC3E7FEFFFFEFA8
:104AC000000C00586548000810B5B0F86020D0F818
:104AD0008C300168222B04D0886940F0080088617E
:104AE00010BD496A1140826D1170816D491C81654C
:104AF000B0F85E10491EA0F85E10B0F85E100029F4
:104B0000EED1016851E8002F22F4907241E80023B1
:104B1000002BF6D10168083151E8002F22F0010284
:104B200041E80023002BF5D12021C0F88C1000248F
:104B300044670467154A016891420BD0496809022D
:104B400008D5016851E8002F22F0806241E8002377
:104B5000002BF6D1C16E012902D0FEF75FFF10BD18
:104B6000C466016851E8002F22F0100241E80023DA
:104B7000002BF6D10168CA69D243D20601D41022B3
:104B80000A62B0F85C10FEF7E1FC10BD000C0058A2
:104B90002DE9F047B0F8609004460068C5690768E1
:104BA0008668D4F88C10222905D0816941F008016B
:104BB0008161BDE8F087B4F868804FF0000A73E0C7
:104BC0002068406AA16D00EA09000870A06D401CD1
:104BD000A065B4F85E00401EA4F85E002068C569B8
:104BE00069072DD0E90709D0F90507D50121016230
:104BF000D4F8900040F00100C4F89000A8070AD54E
:104C0000F00708D0216802200862D4F8900040F034
:104C10000400C4F8900068070AD5F00708D021689E
:104C200004200862D4F8900040F00200C4F890001C
:104C3000D4F8900020B12046FEF78CFCC4F890A078
:104C4000B4F85E0080BB206850E8001F21F480713A
:104C500040E80012002AF6D1314A2068083050E8B6
:104C6000001F114040E80013002BF6D12020C4F8AB
:104C70008C00C4F874A05246C4F870A0294920687A
:104C800088420BD04068000208D5206850E8001F19
:104C900021F0806140E80013002BF6D1E06E01287E
:104CA00027D02046FEF7BAFEB8F1000F01D0A806C3
:104CB00086D4B4F85E0000283FF47BAFB4F86810E7
:104CC00081427FF676AF2068083050E8001F21F05F
:104CD000805140E80012002AF5D11348606720682F
:104CE00050E8001F41F0200140E80012002AF6D1F0
:104CF0005FE7E266206850E8001F21F0100140E8FD
:104D00000012002AF6D12068C169C943C90601D43E
:104D100010210162B4F85C102046FEF717FCC3E7CF
:104D2000FEFFFFEF000C0058C94A00082DE9F043D0
:104D3000044600680025DFF8548387B02269A16823
:104D4000E369114362691A4311430268D04B1A4068
:104D50000A43026020684168E26821F4405111432F
:104D600041602168A069414501D0226A10438A68E8
:104D7000C84B1A4002438A602068C16A626A21F007
:104D80000F011143C162C4492268C4488A420ED14E
:104D9000006800F03800182873D047DCB8B3082842
:104DA00079D010286FD178E028287ED17BE0BC49EB
:104DB0008A4209D1006800F00700062875D2DFE8B2
:104DC00000F0546A6C6E7072B6498A4209D100686C
:104DD00000F00700062868D2DFE800F0475D5F6159
:104DE0006365B1498A4209D1006800F007000628CE
:104DF0005BD2DFE800F03A5052545658AB498A4231
:104E00000BD1006800F0070006284ED200E010E049
:104E1000DFE800F02B4143454749A5498A420AD1C2
:104E2000006800F03800182839D0B7DD2028BBD141
:104E300037E001213AE09F498A4209D1006800F039
:104E40000700062831D2DFE800F01026282A2C2E91
:104E500099498A420BD1006800F00700062824D245
:104E6000DFE800F003191B1D1F2100211EE0424551
:104E70001BD18A48001D006800F00700062814D2E4
:104E800002E00CE007E010E0DFE800F003050709AE
:104E90000B0D02210AE0042108E0082106E01021A0
:104EA00004E0202102E0402100E0802183487B4B88
:104EB0004FF4004C824E4FF000090711543B42451D
:104EC0004DD1102919D006DC022909D004290AD0B5
:104ED00008297DD10CE020293DD0402978D13CE043
:104EE000FDF762F910E06846FDF770F901980BE0F4
:104EF00003A8FDF709FA049806E01968890605D5A4
:104F00001968C1F3C101C840002823D0616A36F88E
:104F100011206668B0FBF2F106EB46038B4257D8CE
:104F2000B1EB063F54D800234F461946FBF735FA3C
:104F30000902020241EA10617008101832467941F4
:104F40000023FBF72AFA5F4AA0F5407191423FD84F
:104F50002168C86086E03846D8E76046D6E7E2694F
:104F60004FF6EF78624545D1082918D005DC59B1D4
:104F700001290CD0042974D10CE0102914D0202967
:104F800034D040296DD133E0FDF7B6FB13E0FDF7D7
:104F9000C5FB10E06846FDF719F901980BE003A87E
:104FA000FDF7B2F9049806E01968890604D5196876
:104FB000C1F3C101C84080B3616A36F81110B0FB7B
:104FC000F1F04100606801EB5001B1FBF0F000E04E
:104FD00047E0A0F11002424543D84FF6F07101407E
:104FE000C0F3420001432068C1603BE03846E3E77C
:104FF0006046E1E7082919D005DC59B101290DD037
:1050000004292ED10DE0102915D0202937D04029B0
:1050100027D136E0FDF770FB14E023E0FDF77EFBBF
:1050200010E06846FDF7D2F801980BE003A8FDF701
:105030006BF9049806E01968890604D51968C1F36C
:10504000C101C84070B1616A36F81110B0FBF1F1CE
:10505000606801EB5001B1FBF0F0A0F11001414597
:1050600011D901250120A4F86A00A4F86800284697
:10507000C4F87490C4F8789007B0BDE8F08338465F
:10508000E1E76046DFE780B262E70000000C00580D
:10509000F369FFCFFFF4FF110010014054440258A0
:1050A0000044004000480040004C004000500040D8
:1050B0000014014000780040007C00400090D003C4
:1050C0004A550008FFFC0F0070B58165A0F85C2010
:1050D000A0F85E2000234367FF2581684FF48054C9
:1050E000A14204D10169F9B940F2FF1122E07F2603
:1050F000C1B1B1F1805F1AD0A0F86030C0F8903033
:105100002221C0F88C100168083151E8003F43F0BB
:10511000010341E80035002DF5D1416EB1F1005F8A
:105120000ED031E0016941B9A0F86050E6E70169AD
:1051300019B13F21A0F86010E0E7A0F86060DDE75A
:10514000B0F8681091421FD88168A14201D101696D
:10515000B9B11D494167016941B1016851E8002FAA
:1051600042F4807241E80023002BF6D10168083137
:1051700051E8002F42F0805241E80023002BF5D186
:1051800020E012494167F1E78168A14201D101693C
:1051900069B10F494167016959B1016851E8002FB0
:1051A00042F4907241E80023002BF6D10AE009494D
:1051B0004167016851E8002F42F0200241E80023D6
:1051C000002BF6D1002070BD914B00082D4900083E
:1051D000C94A0008654800082DE9F0471F46904677
:1051E0000E460446089D4FF000092EE0681C2CD0A6
:1051F000FCF7F8FDC01BA84214D89DB120680168D7
:10520000490722D5C169C94309070DD4082505629C
:105210002046FFF7FDFAC4F89050012084F88490EE
:10522000BDE8F0870320FBE7C069C04300050CD44C
:1052300021684FF4006008622046FFF7E9FA202059
:10524000C4F8900084F88490ECE72068C06936EADE
:10525000000004D000204045C8D00020E0E7012035
:10526000F9E7000070B50D4D00240D48FEF77AF9FE
:1052700002E0641CAC4204D80948FEF76CF920280F
:10528000F7D1002402E0641CAC4206D80549012293
:105290000348FEF79FFB0028F5D170BDFFFF01001A
:1052A0007402002424000024FEE703B401984100A6
:1052B000009850EAC12018BF04204A0D18BF40F0E2
:1052C000010040F2FF72B2EB515F08BF40F00200F4
:1052D000012808BF052002B070470907090E002801
:1052E00004DB00F1E02080F80014704700F00F00AC
:1052F00000F1E02080F8141D7047704710B5044697
:105300000420FDF76CFD0148046010BD200000245E
:1053100070B54FF0E02500216C69094AAB6912684D
:105320005043AA699A42FCD002D2A3EB020302E0E6
:10533000A4EB02063344194413468142F1D370BDF5
:10534000200000240349CA695206FCD5C2B28A6211
:1053500070470000001001400B4800B587B001689D
:1053600041F0010101600068202100F0010005907A
:1053700001200290CDE90010022003900348694605
:10538000FCF732FC07B000BDE044025800000258B0
:10539000FCF76EFE042302220521A020FEF752FE38
:1053A0004FF4C870FFF7AAFF4FF4E13000F094F813
:1053B00000F07AF8FEF760FBFEF7A2FBFFF7CCFFE8
:1053C000FEF738FD00F079F8322000F006F83220C0
:1053D00000F00FF800F01AF8FCE7002200284FF068
:1053E000804102DB4A6388637047404248638A63B6
:1053F0007047002200284FF0804102DBCA63086436
:1054000070474042C8630A647047000070B5164D8B
:10541000287800F05BF828780F24401CC0B2287070
:10542000B0FBF4F104FB110100291BD1B42801D910
:1054300000202870FEF750FB95ED010A29780BA09B
:10544000B7EEC00A5A3953EC102BFBF71DF814497C
:105450006868884206DA287801221249B0FBF4F025
:1054600041F8202070BD00002C0000246F6273748E
:1054700072756374696F6E20696E666F726D6174A8
:10548000696F6E20616E676C653A25642C204469F3
:105490007374616E63653A256620636D0D0A0000C2
:1054A0000000A0400803002410B5FEF777FEFEF7C9
:1054B00025FDBDE81040FEF775BD10B5FEF790FE66
:1054C000FEF756FDBDE81040FEF7A0BD01492D30A6
:1054D00008607047400800400B490A4A10B5C1E90E
:1054E000002000208860C860086188610C20486145
:1054F0000846FEF7F9F9BDE81040044901220248C8
:10550000FEF768BA00100140740200242400002451
:1055100010B500290AD00878002807D0054878443B
:10552000FBF722FC002801D0002010BD024878447F
:1055300010BD00000A010000020100004FF04070A1
:10554000E1EE100A7047FBF781B901000200040088
:10555000060008000A000C00100020004000800037
:105560000001000000000102030401020304060719
:105570000809000002400000000000A00000000038
:1055800005400000000000C8000000000C400000C2
:105590000000409C00000000194000000020BCBE3C
:1055A0000000000034400000BFC91B8E0000000452
:1055B000B5400000504BCFD06607E2CF010000009D
:1055C0006C4100003E8251AADFEEA73401000000CA
:1055D000D9420000DCB5A0E23A301F97FFFFFFFF81
:1055E000B4450000FD25A0C8E9A3C14FFFFFFFFFA0
:1055F000FF3F00000000008000000000FF3F0000AF
:105600000000008000000000445600080000002454
:105610003C000000D4020008805600083C00002432
:105620005C090000F00200081C00000043000000BC
:10563000F8FFFFFF0C0000000E0000000F0000004C
:105640002E0000000100000010000000000000001B
:1056500000000000000000006400000000000000E6
:10566000000000000000000000000000000000003A
:1056700000000000000000000090D0030090D00364
:040000050800029954
:00000001FF
